{
	"contracts/Ethereum-Wallet.sol": {
		"SmartWalletProject": {
			"abi": [
				{
					"inputs": [],
					"stateMutability": "nonpayable",
					"type": "constructor"
				},
				{
					"inputs": [
						{
							"internalType": "address",
							"name": "",
							"type": "address"
						}
					],
					"name": "Allowances",
					"outputs": [
						{
							"internalType": "uint256",
							"name": "",
							"type": "uint256"
						}
					],
					"stateMutability": "view",
					"type": "function"
				},
				{
					"inputs": [
						{
							"internalType": "address",
							"name": "",
							"type": "address"
						}
					],
					"name": "Guardian",
					"outputs": [
						{
							"internalType": "bool",
							"name": "",
							"type": "bool"
						}
					],
					"stateMutability": "view",
					"type": "function"
				},
				{
					"inputs": [
						{
							"internalType": "address",
							"name": "",
							"type": "address"
						},
						{
							"internalType": "address",
							"name": "",
							"type": "address"
						}
					],
					"name": "guardiansNotVoted",
					"outputs": [
						{
							"internalType": "bool",
							"name": "",
							"type": "bool"
						}
					],
					"stateMutability": "view",
					"type": "function"
				},
				{
					"inputs": [
						{
							"internalType": "address",
							"name": "",
							"type": "address"
						}
					],
					"name": "isAllowed",
					"outputs": [
						{
							"internalType": "bool",
							"name": "",
							"type": "bool"
						}
					],
					"stateMutability": "view",
					"type": "function"
				},
				{
					"inputs": [],
					"name": "nextOwner",
					"outputs": [
						{
							"internalType": "address payable",
							"name": "",
							"type": "address"
						}
					],
					"stateMutability": "view",
					"type": "function"
				},
				{
					"inputs": [],
					"name": "owner",
					"outputs": [
						{
							"internalType": "address payable",
							"name": "",
							"type": "address"
						}
					],
					"stateMutability": "view",
					"type": "function"
				},
				{
					"inputs": [
						{
							"internalType": "address payable",
							"name": "_newOwner",
							"type": "address"
						}
					],
					"name": "selectNextOwner",
					"outputs": [],
					"stateMutability": "nonpayable",
					"type": "function"
				},
				{
					"inputs": [
						{
							"internalType": "address",
							"name": "_for",
							"type": "address"
						},
						{
							"internalType": "uint256",
							"name": "_amount",
							"type": "uint256"
						}
					],
					"name": "setAllowances",
					"outputs": [],
					"stateMutability": "nonpayable",
					"type": "function"
				},
				{
					"inputs": [
						{
							"internalType": "address",
							"name": "_guard",
							"type": "address"
						},
						{
							"internalType": "bool",
							"name": "_isguardian",
							"type": "bool"
						}
					],
					"name": "setGuardian",
					"outputs": [],
					"stateMutability": "nonpayable",
					"type": "function"
				},
				{
					"inputs": [],
					"name": "suggestions",
					"outputs": [
						{
							"internalType": "uint256",
							"name": "",
							"type": "uint256"
						}
					],
					"stateMutability": "view",
					"type": "function"
				},
				{
					"inputs": [],
					"name": "suggestionsRequired",
					"outputs": [
						{
							"internalType": "uint256",
							"name": "",
							"type": "uint256"
						}
					],
					"stateMutability": "view",
					"type": "function"
				},
				{
					"inputs": [
						{
							"internalType": "address",
							"name": "_to",
							"type": "address"
						},
						{
							"internalType": "uint256",
							"name": "_amount",
							"type": "uint256"
						},
						{
							"internalType": "bytes",
							"name": "_payload",
							"type": "bytes"
						}
					],
					"name": "transfer",
					"outputs": [
						{
							"internalType": "bytes",
							"name": "",
							"type": "bytes"
						}
					],
					"stateMutability": "nonpayable",
					"type": "function"
				},
				{
					"stateMutability": "payable",
					"type": "receive"
				}
			],
			"devdoc": {
				"kind": "dev",
				"methods": {},
				"version": 1
			},
			"evm": {
				"assembly": "    /* \"contracts/Ethereum-Wallet.sol\":60:2284  contract SmartWalletProject {... */\n  mstore(0x40, 0x80)\n    /* \"contracts/Ethereum-Wallet.sol\":132:192  constructor(){... */\n  callvalue\n  dup1\n  iszero\n  tag_1\n  jumpi\n  0x00\n  dup1\n  revert\ntag_1:\n  pop\n    /* \"contracts/Ethereum-Wallet.sol\":173:183  msg.sender */\n  caller\n    /* \"contracts/Ethereum-Wallet.sol\":156:161  owner */\n  0x00\n  dup1\n    /* \"contracts/Ethereum-Wallet.sol\":156:184  owner = payable (msg.sender) */\n  0x0100\n  exp\n  dup2\n  sload\n  dup2\n  0xffffffffffffffffffffffffffffffffffffffff\n  mul\n  not\n  and\n  swap1\n  dup4\n  0xffffffffffffffffffffffffffffffffffffffff\n  and\n  mul\n  or\n  swap1\n  sstore\n  pop\n    /* \"contracts/Ethereum-Wallet.sol\":60:2284  contract SmartWalletProject {... */\n  dataSize(sub_0)\n  dup1\n  dataOffset(sub_0)\n  0x00\n  codecopy\n  0x00\n  return\nstop\n\nsub_0: assembly {\n        /* \"contracts/Ethereum-Wallet.sol\":60:2284  contract SmartWalletProject {... */\n      mstore(0x40, 0x80)\n      jumpi(tag_1, lt(calldatasize, 0x04))\n      shr(0xe0, calldataload(0x00))\n      dup1\n      0x81e5a9f0\n      gt\n      tag_15\n      jumpi\n      dup1\n      0x81e5a9f0\n      eq\n      tag_9\n      jumpi\n      dup1\n      0x8da5cb5b\n      eq\n      tag_10\n      jumpi\n      dup1\n      0x8f8149bd\n      eq\n      tag_11\n      jumpi\n      dup1\n      0x99dca43d\n      eq\n      tag_12\n      jumpi\n      dup1\n      0xbabcc539\n      eq\n      tag_13\n      jumpi\n      dup1\n      0xbe45fd62\n      eq\n      tag_14\n      jumpi\n      jump(tag_2)\n    tag_15:\n      dup1\n      0x139c7b5d\n      eq\n      tag_3\n      jumpi\n      dup1\n      0x1b621171\n      eq\n      tag_4\n      jumpi\n      dup1\n      0x2b8a1c5a\n      eq\n      tag_5\n      jumpi\n      dup1\n      0x69f3331d\n      eq\n      tag_6\n      jumpi\n      dup1\n      0x6f30cc1f\n      eq\n      tag_7\n      jumpi\n      dup1\n      0x711dca2d\n      eq\n      tag_8\n      jumpi\n      jump(tag_2)\n    tag_1:\n      jumpi(tag_2, calldatasize)\n      stop\n    tag_2:\n      0x00\n      dup1\n      revert\n        /* \"contracts/Ethereum-Wallet.sol\":1282:1548  function setAllowances(address _for, uint _amount) public {... */\n    tag_3:\n      callvalue\n      dup1\n      iszero\n      tag_18\n      jumpi\n      0x00\n      dup1\n      revert\n    tag_18:\n      pop\n      tag_19\n      0x04\n      dup1\n      calldatasize\n      sub\n      dup2\n      add\n      swap1\n      tag_20\n      swap2\n      swap1\n      tag_21\n      jump\t// in\n    tag_20:\n      tag_22\n      jump\t// in\n    tag_19:\n      stop\n        /* \"contracts/Ethereum-Wallet.sol\":467:538  mapping (address => mapping (address => bool)) public guardiansNotVoted */\n    tag_4:\n      callvalue\n      dup1\n      iszero\n      tag_23\n      jumpi\n      0x00\n      dup1\n      revert\n    tag_23:\n      pop\n      tag_24\n      0x04\n      dup1\n      calldatasize\n      sub\n      dup2\n      add\n      swap1\n      tag_25\n      swap2\n      swap1\n      tag_26\n      jump\t// in\n    tag_25:\n      tag_27\n      jump\t// in\n    tag_24:\n      mload(0x40)\n      tag_28\n      swap2\n      swap1\n      tag_29\n      jump\t// in\n    tag_28:\n      mload(0x40)\n      dup1\n      swap2\n      sub\n      swap1\n      return\n        /* \"contracts/Ethereum-Wallet.sol\":547:658  function setGuardian(address _guard, bool _isguardian) public {... */\n    tag_5:\n      callvalue\n      dup1\n      iszero\n      tag_30\n      jumpi\n      0x00\n      dup1\n      revert\n    tag_30:\n      pop\n      tag_31\n      0x04\n      dup1\n      calldatasize\n      sub\n      dup2\n      add\n      swap1\n      tag_32\n      swap2\n      swap1\n      tag_33\n      jump\t// in\n    tag_32:\n      tag_34\n      jump\t// in\n    tag_31:\n      stop\n        /* \"contracts/Ethereum-Wallet.sol\":347:379  address payable public nextOwner */\n    tag_6:\n      callvalue\n      dup1\n      iszero\n      tag_35\n      jumpi\n      0x00\n      dup1\n      revert\n    tag_35:\n      pop\n      tag_36\n      tag_37\n      jump\t// in\n    tag_36:\n      mload(0x40)\n      tag_38\n      swap2\n      swap1\n      tag_39\n      jump\t// in\n    tag_38:\n      mload(0x40)\n      dup1\n      swap2\n      sub\n      swap1\n      return\n        /* \"contracts/Ethereum-Wallet.sol\":386:430  uint public constant suggestionsRequired = 3 */\n    tag_7:\n      callvalue\n      dup1\n      iszero\n      tag_40\n      jumpi\n      0x00\n      dup1\n      revert\n    tag_40:\n      pop\n      tag_41\n      tag_42\n      jump\t// in\n    tag_41:\n      mload(0x40)\n      tag_43\n      swap2\n      swap1\n      tag_44\n      jump\t// in\n    tag_43:\n      mload(0x40)\n      dup1\n      swap2\n      sub\n      swap1\n      return\n        /* \"contracts/Ethereum-Wallet.sol\":299:340  mapping (address => bool) public Guardian */\n    tag_8:\n      callvalue\n      dup1\n      iszero\n      tag_45\n      jumpi\n      0x00\n      dup1\n      revert\n    tag_45:\n      pop\n      tag_46\n      0x04\n      dup1\n      calldatasize\n      sub\n      dup2\n      add\n      swap1\n      tag_47\n      swap2\n      swap1\n      tag_48\n      jump\t// in\n    tag_47:\n      tag_49\n      jump\t// in\n    tag_46:\n      mload(0x40)\n      tag_50\n      swap2\n      swap1\n      tag_29\n      jump\t// in\n    tag_50:\n      mload(0x40)\n      dup1\n      swap2\n      sub\n      swap1\n      return\n        /* \"contracts/Ethereum-Wallet.sol\":437:460  uint public suggestions */\n    tag_9:\n      callvalue\n      dup1\n      iszero\n      tag_51\n      jumpi\n      0x00\n      dup1\n      revert\n    tag_51:\n      pop\n      tag_52\n      tag_53\n      jump\t// in\n    tag_52:\n      mload(0x40)\n      tag_54\n      swap2\n      swap1\n      tag_44\n      jump\t// in\n    tag_54:\n      mload(0x40)\n      dup1\n      swap2\n      sub\n      swap1\n      return\n        /* \"contracts/Ethereum-Wallet.sol\":95:123  address payable public owner */\n    tag_10:\n      callvalue\n      dup1\n      iszero\n      tag_55\n      jumpi\n      0x00\n      dup1\n      revert\n    tag_55:\n      pop\n      tag_56\n      tag_57\n      jump\t// in\n    tag_56:\n      mload(0x40)\n      tag_58\n      swap2\n      swap1\n      tag_39\n      jump\t// in\n    tag_58:\n      mload(0x40)\n      dup1\n      swap2\n      sub\n      swap1\n      return\n        /* \"contracts/Ethereum-Wallet.sol\":200:243  mapping (address => uint) public Allowances */\n    tag_11:\n      callvalue\n      dup1\n      iszero\n      tag_59\n      jumpi\n      0x00\n      dup1\n      revert\n    tag_59:\n      pop\n      tag_60\n      0x04\n      dup1\n      calldatasize\n      sub\n      dup2\n      add\n      swap1\n      tag_61\n      swap2\n      swap1\n      tag_48\n      jump\t// in\n    tag_61:\n      tag_62\n      jump\t// in\n    tag_60:\n      mload(0x40)\n      tag_63\n      swap2\n      swap1\n      tag_44\n      jump\t// in\n    tag_63:\n      mload(0x40)\n      dup1\n      swap2\n      sub\n      swap1\n      return\n        /* \"contracts/Ethereum-Wallet.sol\":666:1274  function selectNextOwner(address payable _newOwner) public {... */\n    tag_12:\n      callvalue\n      dup1\n      iszero\n      tag_64\n      jumpi\n      0x00\n      dup1\n      revert\n    tag_64:\n      pop\n      tag_65\n      0x04\n      dup1\n      calldatasize\n      sub\n      dup2\n      add\n      swap1\n      tag_66\n      swap2\n      swap1\n      tag_67\n      jump\t// in\n    tag_66:\n      tag_68\n      jump\t// in\n    tag_65:\n      stop\n        /* \"contracts/Ethereum-Wallet.sol\":250:292  mapping (address => bool) public isAllowed */\n    tag_13:\n      callvalue\n      dup1\n      iszero\n      tag_69\n      jumpi\n      0x00\n      dup1\n      revert\n    tag_69:\n      pop\n      tag_70\n      0x04\n      dup1\n      calldatasize\n      sub\n      dup2\n      add\n      swap1\n      tag_71\n      swap2\n      swap1\n      tag_48\n      jump\t// in\n    tag_71:\n      tag_72\n      jump\t// in\n    tag_70:\n      mload(0x40)\n      tag_73\n      swap2\n      swap1\n      tag_29\n      jump\t// in\n    tag_73:\n      mload(0x40)\n      dup1\n      swap2\n      sub\n      swap1\n      return\n        /* \"contracts/Ethereum-Wallet.sol\":1556:2243  function transfer(address _to, uint _amount, bytes memory _payload ) public returns (bytes memory) {... */\n    tag_14:\n      callvalue\n      dup1\n      iszero\n      tag_74\n      jumpi\n      0x00\n      dup1\n      revert\n    tag_74:\n      pop\n      tag_75\n      0x04\n      dup1\n      calldatasize\n      sub\n      dup2\n      add\n      swap1\n      tag_76\n      swap2\n      swap1\n      tag_77\n      jump\t// in\n    tag_76:\n      tag_78\n      jump\t// in\n    tag_75:\n      mload(0x40)\n      tag_79\n      swap2\n      swap1\n      tag_80\n      jump\t// in\n    tag_79:\n      mload(0x40)\n      dup1\n      swap2\n      sub\n      swap1\n      return\n        /* \"contracts/Ethereum-Wallet.sol\":1282:1548  function setAllowances(address _for, uint _amount) public {... */\n    tag_22:\n        /* \"contracts/Ethereum-Wallet.sol\":1375:1380  owner */\n      0x00\n      dup1\n      sload\n      swap1\n      0x0100\n      exp\n      swap1\n      div\n      0xffffffffffffffffffffffffffffffffffffffff\n      and\n        /* \"contracts/Ethereum-Wallet.sol\":1361:1380  msg.sender == owner */\n      0xffffffffffffffffffffffffffffffffffffffff\n      and\n        /* \"contracts/Ethereum-Wallet.sol\":1361:1371  msg.sender */\n      caller\n        /* \"contracts/Ethereum-Wallet.sol\":1361:1380  msg.sender == owner */\n      0xffffffffffffffffffffffffffffffffffffffff\n      and\n      eq\n        /* \"contracts/Ethereum-Wallet.sol\":1353:1428  require(msg.sender == owner, \"Only Owner can set allowances!! Aborting...\") */\n      tag_82\n      jumpi\n      mload(0x40)\n      0x08c379a000000000000000000000000000000000000000000000000000000000\n      dup2\n      mstore\n      0x04\n      add\n      tag_83\n      swap1\n      tag_84\n      jump\t// in\n    tag_83:\n      mload(0x40)\n      dup1\n      swap2\n      sub\n      swap1\n      revert\n    tag_82:\n        /* \"contracts/Ethereum-Wallet.sol\":1458:1465  _amount */\n      dup1\n        /* \"contracts/Ethereum-Wallet.sol\":1439:1449  Allowances */\n      0x01\n        /* \"contracts/Ethereum-Wallet.sol\":1439:1455  Allowances[_for] */\n      0x00\n        /* \"contracts/Ethereum-Wallet.sol\":1450:1454  _for */\n      dup5\n        /* \"contracts/Ethereum-Wallet.sol\":1439:1455  Allowances[_for] */\n      0xffffffffffffffffffffffffffffffffffffffff\n      and\n      0xffffffffffffffffffffffffffffffffffffffff\n      and\n      dup2\n      mstore\n      0x20\n      add\n      swap1\n      dup2\n      mstore\n      0x20\n      add\n      0x00\n      keccak256\n        /* \"contracts/Ethereum-Wallet.sol\":1439:1465  Allowances[_for] = _amount */\n      dup2\n      swap1\n      sstore\n      pop\n        /* \"contracts/Ethereum-Wallet.sol\":1489:1490  0 */\n      0x00\n        /* \"contracts/Ethereum-Wallet.sol\":1479:1486  _amount */\n      dup2\n        /* \"contracts/Ethereum-Wallet.sol\":1479:1490  _amount > 0 */\n      gt\n        /* \"contracts/Ethereum-Wallet.sol\":1476:1528  if(_amount > 0) ... */\n      iszero\n      tag_85\n      jumpi\n        /* \"contracts/Ethereum-Wallet.sol\":1524:1528  true */\n      0x01\n        /* \"contracts/Ethereum-Wallet.sol\":1506:1515  isAllowed */\n      0x02\n        /* \"contracts/Ethereum-Wallet.sol\":1506:1521  isAllowed[_for] */\n      0x00\n        /* \"contracts/Ethereum-Wallet.sol\":1516:1520  _for */\n      dup5\n        /* \"contracts/Ethereum-Wallet.sol\":1506:1521  isAllowed[_for] */\n      0xffffffffffffffffffffffffffffffffffffffff\n      and\n      0xffffffffffffffffffffffffffffffffffffffff\n      and\n      dup2\n      mstore\n      0x20\n      add\n      swap1\n      dup2\n      mstore\n      0x20\n      add\n      0x00\n      keccak256\n      0x00\n        /* \"contracts/Ethereum-Wallet.sol\":1506:1528  isAllowed[_for] = true */\n      0x0100\n      exp\n      dup2\n      sload\n      dup2\n      0xff\n      mul\n      not\n      and\n      swap1\n      dup4\n      iszero\n      iszero\n      mul\n      or\n      swap1\n      sstore\n      pop\n        /* \"contracts/Ethereum-Wallet.sol\":1476:1528  if(_amount > 0) ... */\n    tag_85:\n        /* \"contracts/Ethereum-Wallet.sol\":1282:1548  function setAllowances(address _for, uint _amount) public {... */\n      pop\n      pop\n      jump\t// out\n        /* \"contracts/Ethereum-Wallet.sol\":467:538  mapping (address => mapping (address => bool)) public guardiansNotVoted */\n    tag_27:\n      mstore(0x20, 0x06)\n      dup2\n      0x00\n      mstore\n      mstore(0x20, keccak256(0x00, 0x40))\n      dup1\n      0x00\n      mstore\n      keccak256(0x00, 0x40)\n      0x00\n      swap2\n      pop\n      swap2\n      pop\n      swap1\n      sload\n      swap1\n      0x0100\n      exp\n      swap1\n      div\n      0xff\n      and\n      dup2\n      jump\t// out\n        /* \"contracts/Ethereum-Wallet.sol\":547:658  function setGuardian(address _guard, bool _isguardian) public {... */\n    tag_34:\n        /* \"contracts/Ethereum-Wallet.sol\":639:650  _isguardian */\n      dup1\n        /* \"contracts/Ethereum-Wallet.sol\":620:628  Guardian */\n      0x03\n        /* \"contracts/Ethereum-Wallet.sol\":620:636  Guardian[_guard] */\n      0x00\n        /* \"contracts/Ethereum-Wallet.sol\":629:635  _guard */\n      dup5\n        /* \"contracts/Ethereum-Wallet.sol\":620:636  Guardian[_guard] */\n      0xffffffffffffffffffffffffffffffffffffffff\n      and\n      0xffffffffffffffffffffffffffffffffffffffff\n      and\n      dup2\n      mstore\n      0x20\n      add\n      swap1\n      dup2\n      mstore\n      0x20\n      add\n      0x00\n      keccak256\n      0x00\n        /* \"contracts/Ethereum-Wallet.sol\":620:650  Guardian[_guard] = _isguardian */\n      0x0100\n      exp\n      dup2\n      sload\n      dup2\n      0xff\n      mul\n      not\n      and\n      swap1\n      dup4\n      iszero\n      iszero\n      mul\n      or\n      swap1\n      sstore\n      pop\n        /* \"contracts/Ethereum-Wallet.sol\":547:658  function setGuardian(address _guard, bool _isguardian) public {... */\n      pop\n      pop\n      jump\t// out\n        /* \"contracts/Ethereum-Wallet.sol\":347:379  address payable public nextOwner */\n    tag_37:\n      0x04\n      0x00\n      swap1\n      sload\n      swap1\n      0x0100\n      exp\n      swap1\n      div\n      0xffffffffffffffffffffffffffffffffffffffff\n      and\n      dup2\n      jump\t// out\n        /* \"contracts/Ethereum-Wallet.sol\":386:430  uint public constant suggestionsRequired = 3 */\n    tag_42:\n        /* \"contracts/Ethereum-Wallet.sol\":429:430  3 */\n      0x03\n        /* \"contracts/Ethereum-Wallet.sol\":386:430  uint public constant suggestionsRequired = 3 */\n      dup2\n      jump\t// out\n        /* \"contracts/Ethereum-Wallet.sol\":299:340  mapping (address => bool) public Guardian */\n    tag_49:\n      mstore(0x20, 0x03)\n      dup1\n      0x00\n      mstore\n      keccak256(0x00, 0x40)\n      0x00\n      swap2\n      pop\n      sload\n      swap1\n      0x0100\n      exp\n      swap1\n      div\n      0xff\n      and\n      dup2\n      jump\t// out\n        /* \"contracts/Ethereum-Wallet.sol\":437:460  uint public suggestions */\n    tag_53:\n      sload(0x05)\n      dup2\n      jump\t// out\n        /* \"contracts/Ethereum-Wallet.sol\":95:123  address payable public owner */\n    tag_57:\n      0x00\n      dup1\n      sload\n      swap1\n      0x0100\n      exp\n      swap1\n      div\n      0xffffffffffffffffffffffffffffffffffffffff\n      and\n      dup2\n      jump\t// out\n        /* \"contracts/Ethereum-Wallet.sol\":200:243  mapping (address => uint) public Allowances */\n    tag_62:\n      mstore(0x20, 0x01)\n      dup1\n      0x00\n      mstore\n      keccak256(0x00, 0x40)\n      0x00\n      swap2\n      pop\n      swap1\n      pop\n      sload\n      dup2\n      jump\t// out\n        /* \"contracts/Ethereum-Wallet.sol\":666:1274  function selectNextOwner(address payable _newOwner) public {... */\n    tag_68:\n        /* \"contracts/Ethereum-Wallet.sol\":744:752  Guardian */\n      0x03\n        /* \"contracts/Ethereum-Wallet.sol\":744:764  Guardian[msg.sender] */\n      0x00\n        /* \"contracts/Ethereum-Wallet.sol\":753:763  msg.sender */\n      caller\n        /* \"contracts/Ethereum-Wallet.sol\":744:764  Guardian[msg.sender] */\n      0xffffffffffffffffffffffffffffffffffffffff\n      and\n      0xffffffffffffffffffffffffffffffffffffffff\n      and\n      dup2\n      mstore\n      0x20\n      add\n      swap1\n      dup2\n      mstore\n      0x20\n      add\n      0x00\n      keccak256\n      0x00\n      swap1\n      sload\n      swap1\n      0x0100\n      exp\n      swap1\n      div\n      0xff\n      and\n        /* \"contracts/Ethereum-Wallet.sol\":736:820  require(Guardian[msg.sender], \"Only Guardians can suggest next Owner!! Aborting...\") */\n      tag_88\n      jumpi\n      mload(0x40)\n      0x08c379a000000000000000000000000000000000000000000000000000000000\n      dup2\n      mstore\n      0x04\n      add\n      tag_89\n      swap1\n      tag_90\n      jump\t// in\n    tag_89:\n      mload(0x40)\n      dup1\n      swap2\n      sub\n      swap1\n      revert\n    tag_88:\n        /* \"contracts/Ethereum-Wallet.sol\":883:888  false */\n      0x00\n        /* \"contracts/Ethereum-Wallet.sol\":839:888  guardiansNotVoted[_newOwner][msg.sender] == false */\n      iszero\n      iszero\n        /* \"contracts/Ethereum-Wallet.sol\":839:856  guardiansNotVoted */\n      0x06\n        /* \"contracts/Ethereum-Wallet.sol\":839:867  guardiansNotVoted[_newOwner] */\n      0x00\n        /* \"contracts/Ethereum-Wallet.sol\":857:866  _newOwner */\n      dup4\n        /* \"contracts/Ethereum-Wallet.sol\":839:867  guardiansNotVoted[_newOwner] */\n      0xffffffffffffffffffffffffffffffffffffffff\n      and\n      0xffffffffffffffffffffffffffffffffffffffff\n      and\n      dup2\n      mstore\n      0x20\n      add\n      swap1\n      dup2\n      mstore\n      0x20\n      add\n      0x00\n      keccak256\n        /* \"contracts/Ethereum-Wallet.sol\":839:879  guardiansNotVoted[_newOwner][msg.sender] */\n      0x00\n        /* \"contracts/Ethereum-Wallet.sol\":868:878  msg.sender */\n      caller\n        /* \"contracts/Ethereum-Wallet.sol\":839:879  guardiansNotVoted[_newOwner][msg.sender] */\n      0xffffffffffffffffffffffffffffffffffffffff\n      and\n      0xffffffffffffffffffffffffffffffffffffffff\n      and\n      dup2\n      mstore\n      0x20\n      add\n      swap1\n      dup2\n      mstore\n      0x20\n      add\n      0x00\n      keccak256\n      0x00\n      swap1\n      sload\n      swap1\n      0x0100\n      exp\n      swap1\n      div\n      0xff\n      and\n        /* \"contracts/Ethereum-Wallet.sol\":839:888  guardiansNotVoted[_newOwner][msg.sender] == false */\n      iszero\n      iszero\n      eq\n        /* \"contracts/Ethereum-Wallet.sol\":831:927  require(guardiansNotVoted[_newOwner][msg.sender] == false, \"Each Guardian can only vote once!!\") */\n      tag_91\n      jumpi\n      mload(0x40)\n      0x08c379a000000000000000000000000000000000000000000000000000000000\n      dup2\n      mstore\n      0x04\n      add\n      tag_92\n      swap1\n      tag_93\n      jump\t// in\n    tag_92:\n      mload(0x40)\n      dup1\n      swap2\n      sub\n      swap1\n      revert\n    tag_91:\n        /* \"contracts/Ethereum-Wallet.sol\":954:963  nextOwner */\n      0x04\n      0x00\n      swap1\n      sload\n      swap1\n      0x0100\n      exp\n      swap1\n      div\n      0xffffffffffffffffffffffffffffffffffffffff\n      and\n        /* \"contracts/Ethereum-Wallet.sol\":941:963  _newOwner != nextOwner */\n      0xffffffffffffffffffffffffffffffffffffffff\n      and\n        /* \"contracts/Ethereum-Wallet.sol\":941:950  _newOwner */\n      dup2\n        /* \"contracts/Ethereum-Wallet.sol\":941:963  _newOwner != nextOwner */\n      0xffffffffffffffffffffffffffffffffffffffff\n      and\n      eq\n        /* \"contracts/Ethereum-Wallet.sol\":938:1043  if(_newOwner != nextOwner) {... */\n      tag_94\n      jumpi\n        /* \"contracts/Ethereum-Wallet.sol\":994:995  0 */\n      0x00\n        /* \"contracts/Ethereum-Wallet.sol\":980:991  suggestions */\n      0x05\n        /* \"contracts/Ethereum-Wallet.sol\":980:995  suggestions = 0 */\n      dup2\n      swap1\n      sstore\n      pop\n        /* \"contracts/Ethereum-Wallet.sol\":1022:1031  _newOwner */\n      dup1\n        /* \"contracts/Ethereum-Wallet.sol\":1010:1019  nextOwner */\n      0x04\n      0x00\n        /* \"contracts/Ethereum-Wallet.sol\":1010:1031  nextOwner = _newOwner */\n      0x0100\n      exp\n      dup2\n      sload\n      dup2\n      0xffffffffffffffffffffffffffffffffffffffff\n      mul\n      not\n      and\n      swap1\n      dup4\n      0xffffffffffffffffffffffffffffffffffffffff\n      and\n      mul\n      or\n      swap1\n      sstore\n      pop\n        /* \"contracts/Ethereum-Wallet.sol\":938:1043  if(_newOwner != nextOwner) {... */\n    tag_94:\n        /* \"contracts/Ethereum-Wallet.sol\":1053:1064  suggestions */\n      0x05\n      0x00\n        /* \"contracts/Ethereum-Wallet.sol\":1053:1066  suggestions++ */\n      dup2\n      sload\n      dup1\n      swap3\n      swap2\n      swap1\n      tag_95\n      swap1\n      tag_96\n      jump\t// in\n    tag_95:\n      swap2\n      swap1\n      pop\n      sstore\n      pop\n        /* \"contracts/Ethereum-Wallet.sol\":1120:1124  true */\n      0x01\n        /* \"contracts/Ethereum-Wallet.sol\":1077:1094  guardiansNotVoted */\n      0x06\n        /* \"contracts/Ethereum-Wallet.sol\":1077:1105  guardiansNotVoted[_newOwner] */\n      0x00\n        /* \"contracts/Ethereum-Wallet.sol\":1095:1104  _newOwner */\n      dup4\n        /* \"contracts/Ethereum-Wallet.sol\":1077:1105  guardiansNotVoted[_newOwner] */\n      0xffffffffffffffffffffffffffffffffffffffff\n      and\n      0xffffffffffffffffffffffffffffffffffffffff\n      and\n      dup2\n      mstore\n      0x20\n      add\n      swap1\n      dup2\n      mstore\n      0x20\n      add\n      0x00\n      keccak256\n        /* \"contracts/Ethereum-Wallet.sol\":1077:1117  guardiansNotVoted[_newOwner][msg.sender] */\n      0x00\n        /* \"contracts/Ethereum-Wallet.sol\":1106:1116  msg.sender */\n      caller\n        /* \"contracts/Ethereum-Wallet.sol\":1077:1117  guardiansNotVoted[_newOwner][msg.sender] */\n      0xffffffffffffffffffffffffffffffffffffffff\n      and\n      0xffffffffffffffffffffffffffffffffffffffff\n      and\n      dup2\n      mstore\n      0x20\n      add\n      swap1\n      dup2\n      mstore\n      0x20\n      add\n      0x00\n      keccak256\n      0x00\n        /* \"contracts/Ethereum-Wallet.sol\":1077:1124  guardiansNotVoted[_newOwner][msg.sender] = true */\n      0x0100\n      exp\n      dup2\n      sload\n      dup2\n      0xff\n      mul\n      not\n      and\n      swap1\n      dup4\n      iszero\n      iszero\n      mul\n      or\n      swap1\n      sstore\n      pop\n        /* \"contracts/Ethereum-Wallet.sol\":429:430  3 */\n      0x03\n        /* \"contracts/Ethereum-Wallet.sol\":1140:1151  suggestions */\n      sload(0x05)\n        /* \"contracts/Ethereum-Wallet.sol\":1140:1174  suggestions >= suggestionsRequired */\n      lt\n        /* \"contracts/Ethereum-Wallet.sol\":1137:1267  if(suggestions >= suggestionsRequired) {... */\n      tag_97\n      jumpi\n        /* \"contracts/Ethereum-Wallet.sol\":1199:1208  nextOwner */\n      0x04\n      0x00\n      swap1\n      sload\n      swap1\n      0x0100\n      exp\n      swap1\n      div\n      0xffffffffffffffffffffffffffffffffffffffff\n      and\n        /* \"contracts/Ethereum-Wallet.sol\":1191:1196  owner */\n      0x00\n      dup1\n        /* \"contracts/Ethereum-Wallet.sol\":1191:1208  owner = nextOwner */\n      0x0100\n      exp\n      dup2\n      sload\n      dup2\n      0xffffffffffffffffffffffffffffffffffffffff\n      mul\n      not\n      and\n      swap1\n      dup4\n      0xffffffffffffffffffffffffffffffffffffffff\n      and\n      mul\n      or\n      swap1\n      sstore\n      pop\n        /* \"contracts/Ethereum-Wallet.sol\":1252:1253  0 */\n      0x00\n        /* \"contracts/Ethereum-Wallet.sol\":1223:1232  nextOwner */\n      0x04\n      0x00\n        /* \"contracts/Ethereum-Wallet.sol\":1223:1255  nextOwner = payable (address(0)) */\n      0x0100\n      exp\n      dup2\n      sload\n      dup2\n      0xffffffffffffffffffffffffffffffffffffffff\n      mul\n      not\n      and\n      swap1\n      dup4\n      0xffffffffffffffffffffffffffffffffffffffff\n      and\n      mul\n      or\n      swap1\n      sstore\n      pop\n        /* \"contracts/Ethereum-Wallet.sol\":1137:1267  if(suggestions >= suggestionsRequired) {... */\n    tag_97:\n        /* \"contracts/Ethereum-Wallet.sol\":666:1274  function selectNextOwner(address payable _newOwner) public {... */\n      pop\n      jump\t// out\n        /* \"contracts/Ethereum-Wallet.sol\":250:292  mapping (address => bool) public isAllowed */\n    tag_72:\n      mstore(0x20, 0x02)\n      dup1\n      0x00\n      mstore\n      keccak256(0x00, 0x40)\n      0x00\n      swap2\n      pop\n      sload\n      swap1\n      0x0100\n      exp\n      swap1\n      div\n      0xff\n      and\n      dup2\n      jump\t// out\n        /* \"contracts/Ethereum-Wallet.sol\":1556:2243  function transfer(address _to, uint _amount, bytes memory _payload ) public returns (bytes memory) {... */\n    tag_78:\n        /* \"contracts/Ethereum-Wallet.sol\":1641:1653  bytes memory */\n      0x60\n        /* \"contracts/Ethereum-Wallet.sol\":1778:1783  owner */\n      0x00\n      dup1\n      sload\n      swap1\n      0x0100\n      exp\n      swap1\n      div\n      0xffffffffffffffffffffffffffffffffffffffff\n      and\n        /* \"contracts/Ethereum-Wallet.sol\":1764:1783  msg.sender != owner */\n      0xffffffffffffffffffffffffffffffffffffffff\n      and\n        /* \"contracts/Ethereum-Wallet.sol\":1764:1774  msg.sender */\n      caller\n        /* \"contracts/Ethereum-Wallet.sol\":1764:1783  msg.sender != owner */\n      0xffffffffffffffffffffffffffffffffffffffff\n      and\n      eq\n        /* \"contracts/Ethereum-Wallet.sol\":1761:2053  if(msg.sender != owner) {... */\n      tag_99\n      jumpi\n        /* \"contracts/Ethereum-Wallet.sol\":1808:1817  isAllowed */\n      0x02\n        /* \"contracts/Ethereum-Wallet.sol\":1808:1829  isAllowed[msg.sender] */\n      0x00\n        /* \"contracts/Ethereum-Wallet.sol\":1818:1828  msg.sender */\n      caller\n        /* \"contracts/Ethereum-Wallet.sol\":1808:1829  isAllowed[msg.sender] */\n      0xffffffffffffffffffffffffffffffffffffffff\n      and\n      0xffffffffffffffffffffffffffffffffffffffff\n      and\n      dup2\n      mstore\n      0x20\n      add\n      swap1\n      dup2\n      mstore\n      0x20\n      add\n      0x00\n      keccak256\n      0x00\n      swap1\n      sload\n      swap1\n      0x0100\n      exp\n      swap1\n      div\n      0xff\n      and\n        /* \"contracts/Ethereum-Wallet.sol\":1800:1888  require(isAllowed[msg.sender] , \"Not allowed to transact to that address!! Aborting...\") */\n      tag_100\n      jumpi\n      mload(0x40)\n      0x08c379a000000000000000000000000000000000000000000000000000000000\n      dup2\n      mstore\n      0x04\n      add\n      tag_101\n      swap1\n      tag_102\n      jump\t// in\n    tag_101:\n      mload(0x40)\n      dup1\n      swap2\n      sub\n      swap1\n      revert\n    tag_100:\n        /* \"contracts/Ethereum-Wallet.sol\":1922:1932  Allowances */\n      0x01\n        /* \"contracts/Ethereum-Wallet.sol\":1922:1944  Allowances[msg.sender] */\n      0x00\n        /* \"contracts/Ethereum-Wallet.sol\":1933:1943  msg.sender */\n      caller\n        /* \"contracts/Ethereum-Wallet.sol\":1922:1944  Allowances[msg.sender] */\n      0xffffffffffffffffffffffffffffffffffffffff\n      and\n      0xffffffffffffffffffffffffffffffffffffffff\n      and\n      dup2\n      mstore\n      0x20\n      add\n      swap1\n      dup2\n      mstore\n      0x20\n      add\n      0x00\n      keccak256\n      sload\n        /* \"contracts/Ethereum-Wallet.sol\":1911:1918  _amount */\n      dup4\n        /* \"contracts/Ethereum-Wallet.sol\":1911:1944  _amount <= Allowances[msg.sender] */\n      gt\n      iszero\n        /* \"contracts/Ethereum-Wallet.sol\":1903:1991  require(_amount <= Allowances[msg.sender], \"Amount exceeds the allowance!! Aborting...\") */\n      tag_103\n      jumpi\n      mload(0x40)\n      0x08c379a000000000000000000000000000000000000000000000000000000000\n      dup2\n      mstore\n      0x04\n      add\n      tag_104\n      swap1\n      tag_105\n      jump\t// in\n    tag_104:\n      mload(0x40)\n      dup1\n      swap2\n      sub\n      swap1\n      revert\n    tag_103:\n        /* \"contracts/Ethereum-Wallet.sol\":2032:2039  _amount */\n      dup3\n        /* \"contracts/Ethereum-Wallet.sol\":2006:2016  Allowances */\n      0x01\n        /* \"contracts/Ethereum-Wallet.sol\":2006:2028  Allowances[msg.sender] */\n      0x00\n        /* \"contracts/Ethereum-Wallet.sol\":2017:2027  msg.sender */\n      caller\n        /* \"contracts/Ethereum-Wallet.sol\":2006:2028  Allowances[msg.sender] */\n      0xffffffffffffffffffffffffffffffffffffffff\n      and\n      0xffffffffffffffffffffffffffffffffffffffff\n      and\n      dup2\n      mstore\n      0x20\n      add\n      swap1\n      dup2\n      mstore\n      0x20\n      add\n      0x00\n      keccak256\n      0x00\n        /* \"contracts/Ethereum-Wallet.sol\":2006:2039  Allowances[msg.sender] -= _amount */\n      dup3\n      dup3\n      sload\n      tag_106\n      swap2\n      swap1\n      tag_107\n      jump\t// in\n    tag_106:\n      swap3\n      pop\n      pop\n      dup2\n      swap1\n      sstore\n      pop\n        /* \"contracts/Ethereum-Wallet.sol\":1761:2053  if(msg.sender != owner) {... */\n    tag_99:\n        /* \"contracts/Ethereum-Wallet.sol\":2066:2078  bool success */\n      0x00\n        /* \"contracts/Ethereum-Wallet.sol\":2080:2103  bytes memory returnData */\n      dup1\n        /* \"contracts/Ethereum-Wallet.sol\":2107:2110  _to */\n      dup6\n        /* \"contracts/Ethereum-Wallet.sol\":2107:2115  _to.call */\n      0xffffffffffffffffffffffffffffffffffffffff\n      and\n        /* \"contracts/Ethereum-Wallet.sol\":2123:2130  _amount */\n      dup6\n        /* \"contracts/Ethereum-Wallet.sol\":2132:2140  _payload */\n      dup6\n        /* \"contracts/Ethereum-Wallet.sol\":2107:2141  _to.call{value: _amount}(_payload) */\n      mload(0x40)\n      tag_108\n      swap2\n      swap1\n      tag_109\n      jump\t// in\n    tag_108:\n      0x00\n      mload(0x40)\n      dup1\n      dup4\n      sub\n      dup2\n      dup6\n      dup8\n      gas\n      call\n      swap3\n      pop\n      pop\n      pop\n      returndatasize\n      dup1\n      0x00\n      dup2\n      eq\n      tag_112\n      jumpi\n      mload(0x40)\n      swap2\n      pop\n      and(add(returndatasize, 0x3f), not(0x1f))\n      dup3\n      add\n      0x40\n      mstore\n      returndatasize\n      dup3\n      mstore\n      returndatasize\n      0x00\n      0x20\n      dup5\n      add\n      returndatacopy\n      jump(tag_111)\n    tag_112:\n      0x60\n      swap2\n      pop\n    tag_111:\n      pop\n        /* \"contracts/Ethereum-Wallet.sol\":2065:2141  (bool success, bytes memory returnData) = _to.call{value: _amount}(_payload) */\n      swap2\n      pop\n      swap2\n      pop\n        /* \"contracts/Ethereum-Wallet.sol\":2160:2167  success */\n      dup2\n        /* \"contracts/Ethereum-Wallet.sol\":2152:2207  require(success, \"Transfer unsuccessfull! Aborting...\") */\n      tag_113\n      jumpi\n      mload(0x40)\n      0x08c379a000000000000000000000000000000000000000000000000000000000\n      dup2\n      mstore\n      0x04\n      add\n      tag_114\n      swap1\n      tag_115\n      jump\t// in\n    tag_114:\n      mload(0x40)\n      dup1\n      swap2\n      sub\n      swap1\n      revert\n    tag_113:\n        /* \"contracts/Ethereum-Wallet.sol\":2225:2235  returnData */\n      dup1\n        /* \"contracts/Ethereum-Wallet.sol\":2218:2235  return returnData */\n      swap3\n      pop\n      pop\n      pop\n        /* \"contracts/Ethereum-Wallet.sol\":1556:2243  function transfer(address _to, uint _amount, bytes memory _payload ) public returns (bytes memory) {... */\n      swap4\n      swap3\n      pop\n      pop\n      pop\n      jump\t// out\n        /* \"#utility.yul\":7:82   */\n    tag_116:\n        /* \"#utility.yul\":40:46   */\n      0x00\n        /* \"#utility.yul\":73:75   */\n      0x40\n        /* \"#utility.yul\":67:76   */\n      mload\n        /* \"#utility.yul\":57:76   */\n      swap1\n      pop\n        /* \"#utility.yul\":7:82   */\n      swap1\n      jump\t// out\n        /* \"#utility.yul\":88:205   */\n    tag_117:\n        /* \"#utility.yul\":197:198   */\n      0x00\n        /* \"#utility.yul\":194:195   */\n      dup1\n        /* \"#utility.yul\":187:199   */\n      revert\n        /* \"#utility.yul\":211:328   */\n    tag_118:\n        /* \"#utility.yul\":320:321   */\n      0x00\n        /* \"#utility.yul\":317:318   */\n      dup1\n        /* \"#utility.yul\":310:322   */\n      revert\n        /* \"#utility.yul\":334:460   */\n    tag_119:\n        /* \"#utility.yul\":371:378   */\n      0x00\n        /* \"#utility.yul\":411:453   */\n      0xffffffffffffffffffffffffffffffffffffffff\n        /* \"#utility.yul\":404:409   */\n      dup3\n        /* \"#utility.yul\":400:454   */\n      and\n        /* \"#utility.yul\":389:454   */\n      swap1\n      pop\n        /* \"#utility.yul\":334:460   */\n      swap2\n      swap1\n      pop\n      jump\t// out\n        /* \"#utility.yul\":466:562   */\n    tag_120:\n        /* \"#utility.yul\":503:510   */\n      0x00\n        /* \"#utility.yul\":532:556   */\n      tag_171\n        /* \"#utility.yul\":550:555   */\n      dup3\n        /* \"#utility.yul\":532:556   */\n      tag_119\n      jump\t// in\n    tag_171:\n        /* \"#utility.yul\":521:556   */\n      swap1\n      pop\n        /* \"#utility.yul\":466:562   */\n      swap2\n      swap1\n      pop\n      jump\t// out\n        /* \"#utility.yul\":568:690   */\n    tag_121:\n        /* \"#utility.yul\":641:665   */\n      tag_173\n        /* \"#utility.yul\":659:664   */\n      dup2\n        /* \"#utility.yul\":641:665   */\n      tag_120\n      jump\t// in\n    tag_173:\n        /* \"#utility.yul\":634:639   */\n      dup2\n        /* \"#utility.yul\":631:666   */\n      eq\n        /* \"#utility.yul\":621:684   */\n      tag_174\n      jumpi\n        /* \"#utility.yul\":680:681   */\n      0x00\n        /* \"#utility.yul\":677:678   */\n      dup1\n        /* \"#utility.yul\":670:682   */\n      revert\n        /* \"#utility.yul\":621:684   */\n    tag_174:\n        /* \"#utility.yul\":568:690   */\n      pop\n      jump\t// out\n        /* \"#utility.yul\":696:835   */\n    tag_122:\n        /* \"#utility.yul\":742:747   */\n      0x00\n        /* \"#utility.yul\":780:786   */\n      dup2\n        /* \"#utility.yul\":767:787   */\n      calldataload\n        /* \"#utility.yul\":758:787   */\n      swap1\n      pop\n        /* \"#utility.yul\":796:829   */\n      tag_176\n        /* \"#utility.yul\":823:828   */\n      dup2\n        /* \"#utility.yul\":796:829   */\n      tag_121\n      jump\t// in\n    tag_176:\n        /* \"#utility.yul\":696:835   */\n      swap3\n      swap2\n      pop\n      pop\n      jump\t// out\n        /* \"#utility.yul\":841:918   */\n    tag_123:\n        /* \"#utility.yul\":878:885   */\n      0x00\n        /* \"#utility.yul\":907:912   */\n      dup2\n        /* \"#utility.yul\":896:912   */\n      swap1\n      pop\n        /* \"#utility.yul\":841:918   */\n      swap2\n      swap1\n      pop\n      jump\t// out\n        /* \"#utility.yul\":924:1046   */\n    tag_124:\n        /* \"#utility.yul\":997:1021   */\n      tag_179\n        /* \"#utility.yul\":1015:1020   */\n      dup2\n        /* \"#utility.yul\":997:1021   */\n      tag_123\n      jump\t// in\n    tag_179:\n        /* \"#utility.yul\":990:995   */\n      dup2\n        /* \"#utility.yul\":987:1022   */\n      eq\n        /* \"#utility.yul\":977:1040   */\n      tag_180\n      jumpi\n        /* \"#utility.yul\":1036:1037   */\n      0x00\n        /* \"#utility.yul\":1033:1034   */\n      dup1\n        /* \"#utility.yul\":1026:1038   */\n      revert\n        /* \"#utility.yul\":977:1040   */\n    tag_180:\n        /* \"#utility.yul\":924:1046   */\n      pop\n      jump\t// out\n        /* \"#utility.yul\":1052:1191   */\n    tag_125:\n        /* \"#utility.yul\":1098:1103   */\n      0x00\n        /* \"#utility.yul\":1136:1142   */\n      dup2\n        /* \"#utility.yul\":1123:1143   */\n      calldataload\n        /* \"#utility.yul\":1114:1143   */\n      swap1\n      pop\n        /* \"#utility.yul\":1152:1185   */\n      tag_182\n        /* \"#utility.yul\":1179:1184   */\n      dup2\n        /* \"#utility.yul\":1152:1185   */\n      tag_124\n      jump\t// in\n    tag_182:\n        /* \"#utility.yul\":1052:1191   */\n      swap3\n      swap2\n      pop\n      pop\n      jump\t// out\n        /* \"#utility.yul\":1197:1671   */\n    tag_21:\n        /* \"#utility.yul\":1265:1271   */\n      0x00\n        /* \"#utility.yul\":1273:1279   */\n      dup1\n        /* \"#utility.yul\":1322:1324   */\n      0x40\n        /* \"#utility.yul\":1310:1319   */\n      dup4\n        /* \"#utility.yul\":1301:1308   */\n      dup6\n        /* \"#utility.yul\":1297:1320   */\n      sub\n        /* \"#utility.yul\":1293:1325   */\n      slt\n        /* \"#utility.yul\":1290:1409   */\n      iszero\n      tag_184\n      jumpi\n        /* \"#utility.yul\":1328:1407   */\n      tag_185\n      tag_117\n      jump\t// in\n    tag_185:\n        /* \"#utility.yul\":1290:1409   */\n    tag_184:\n        /* \"#utility.yul\":1448:1449   */\n      0x00\n        /* \"#utility.yul\":1473:1526   */\n      tag_186\n        /* \"#utility.yul\":1518:1525   */\n      dup6\n        /* \"#utility.yul\":1509:1515   */\n      dup3\n        /* \"#utility.yul\":1498:1507   */\n      dup7\n        /* \"#utility.yul\":1494:1516   */\n      add\n        /* \"#utility.yul\":1473:1526   */\n      tag_122\n      jump\t// in\n    tag_186:\n        /* \"#utility.yul\":1463:1526   */\n      swap3\n      pop\n        /* \"#utility.yul\":1419:1536   */\n      pop\n        /* \"#utility.yul\":1575:1577   */\n      0x20\n        /* \"#utility.yul\":1601:1654   */\n      tag_187\n        /* \"#utility.yul\":1646:1653   */\n      dup6\n        /* \"#utility.yul\":1637:1643   */\n      dup3\n        /* \"#utility.yul\":1626:1635   */\n      dup7\n        /* \"#utility.yul\":1622:1644   */\n      add\n        /* \"#utility.yul\":1601:1654   */\n      tag_125\n      jump\t// in\n    tag_187:\n        /* \"#utility.yul\":1591:1654   */\n      swap2\n      pop\n        /* \"#utility.yul\":1546:1664   */\n      pop\n        /* \"#utility.yul\":1197:1671   */\n      swap3\n      pop\n      swap3\n      swap1\n      pop\n      jump\t// out\n        /* \"#utility.yul\":1677:2151   */\n    tag_26:\n        /* \"#utility.yul\":1745:1751   */\n      0x00\n        /* \"#utility.yul\":1753:1759   */\n      dup1\n        /* \"#utility.yul\":1802:1804   */\n      0x40\n        /* \"#utility.yul\":1790:1799   */\n      dup4\n        /* \"#utility.yul\":1781:1788   */\n      dup6\n        /* \"#utility.yul\":1777:1800   */\n      sub\n        /* \"#utility.yul\":1773:1805   */\n      slt\n        /* \"#utility.yul\":1770:1889   */\n      iszero\n      tag_189\n      jumpi\n        /* \"#utility.yul\":1808:1887   */\n      tag_190\n      tag_117\n      jump\t// in\n    tag_190:\n        /* \"#utility.yul\":1770:1889   */\n    tag_189:\n        /* \"#utility.yul\":1928:1929   */\n      0x00\n        /* \"#utility.yul\":1953:2006   */\n      tag_191\n        /* \"#utility.yul\":1998:2005   */\n      dup6\n        /* \"#utility.yul\":1989:1995   */\n      dup3\n        /* \"#utility.yul\":1978:1987   */\n      dup7\n        /* \"#utility.yul\":1974:1996   */\n      add\n        /* \"#utility.yul\":1953:2006   */\n      tag_122\n      jump\t// in\n    tag_191:\n        /* \"#utility.yul\":1943:2006   */\n      swap3\n      pop\n        /* \"#utility.yul\":1899:2016   */\n      pop\n        /* \"#utility.yul\":2055:2057   */\n      0x20\n        /* \"#utility.yul\":2081:2134   */\n      tag_192\n        /* \"#utility.yul\":2126:2133   */\n      dup6\n        /* \"#utility.yul\":2117:2123   */\n      dup3\n        /* \"#utility.yul\":2106:2115   */\n      dup7\n        /* \"#utility.yul\":2102:2124   */\n      add\n        /* \"#utility.yul\":2081:2134   */\n      tag_122\n      jump\t// in\n    tag_192:\n        /* \"#utility.yul\":2071:2134   */\n      swap2\n      pop\n        /* \"#utility.yul\":2026:2144   */\n      pop\n        /* \"#utility.yul\":1677:2151   */\n      swap3\n      pop\n      swap3\n      swap1\n      pop\n      jump\t// out\n        /* \"#utility.yul\":2157:2247   */\n    tag_126:\n        /* \"#utility.yul\":2191:2198   */\n      0x00\n        /* \"#utility.yul\":2234:2239   */\n      dup2\n        /* \"#utility.yul\":2227:2240   */\n      iszero\n        /* \"#utility.yul\":2220:2241   */\n      iszero\n        /* \"#utility.yul\":2209:2241   */\n      swap1\n      pop\n        /* \"#utility.yul\":2157:2247   */\n      swap2\n      swap1\n      pop\n      jump\t// out\n        /* \"#utility.yul\":2253:2362   */\n    tag_127:\n        /* \"#utility.yul\":2334:2355   */\n      tag_195\n        /* \"#utility.yul\":2349:2354   */\n      dup2\n        /* \"#utility.yul\":2334:2355   */\n      tag_126\n      jump\t// in\n    tag_195:\n        /* \"#utility.yul\":2329:2332   */\n      dup3\n        /* \"#utility.yul\":2322:2356   */\n      mstore\n        /* \"#utility.yul\":2253:2362   */\n      pop\n      pop\n      jump\t// out\n        /* \"#utility.yul\":2368:2578   */\n    tag_29:\n        /* \"#utility.yul\":2455:2459   */\n      0x00\n        /* \"#utility.yul\":2493:2495   */\n      0x20\n        /* \"#utility.yul\":2482:2491   */\n      dup3\n        /* \"#utility.yul\":2478:2496   */\n      add\n        /* \"#utility.yul\":2470:2496   */\n      swap1\n      pop\n        /* \"#utility.yul\":2506:2571   */\n      tag_197\n        /* \"#utility.yul\":2568:2569   */\n      0x00\n        /* \"#utility.yul\":2557:2566   */\n      dup4\n        /* \"#utility.yul\":2553:2570   */\n      add\n        /* \"#utility.yul\":2544:2550   */\n      dup5\n        /* \"#utility.yul\":2506:2571   */\n      tag_127\n      jump\t// in\n    tag_197:\n        /* \"#utility.yul\":2368:2578   */\n      swap3\n      swap2\n      pop\n      pop\n      jump\t// out\n        /* \"#utility.yul\":2584:2700   */\n    tag_128:\n        /* \"#utility.yul\":2654:2675   */\n      tag_199\n        /* \"#utility.yul\":2669:2674   */\n      dup2\n        /* \"#utility.yul\":2654:2675   */\n      tag_126\n      jump\t// in\n    tag_199:\n        /* \"#utility.yul\":2647:2652   */\n      dup2\n        /* \"#utility.yul\":2644:2676   */\n      eq\n        /* \"#utility.yul\":2634:2694   */\n      tag_200\n      jumpi\n        /* \"#utility.yul\":2690:2691   */\n      0x00\n        /* \"#utility.yul\":2687:2688   */\n      dup1\n        /* \"#utility.yul\":2680:2692   */\n      revert\n        /* \"#utility.yul\":2634:2694   */\n    tag_200:\n        /* \"#utility.yul\":2584:2700   */\n      pop\n      jump\t// out\n        /* \"#utility.yul\":2706:2839   */\n    tag_129:\n        /* \"#utility.yul\":2749:2754   */\n      0x00\n        /* \"#utility.yul\":2787:2793   */\n      dup2\n        /* \"#utility.yul\":2774:2794   */\n      calldataload\n        /* \"#utility.yul\":2765:2794   */\n      swap1\n      pop\n        /* \"#utility.yul\":2803:2833   */\n      tag_202\n        /* \"#utility.yul\":2827:2832   */\n      dup2\n        /* \"#utility.yul\":2803:2833   */\n      tag_128\n      jump\t// in\n    tag_202:\n        /* \"#utility.yul\":2706:2839   */\n      swap3\n      swap2\n      pop\n      pop\n      jump\t// out\n        /* \"#utility.yul\":2845:3313   */\n    tag_33:\n        /* \"#utility.yul\":2910:2916   */\n      0x00\n        /* \"#utility.yul\":2918:2924   */\n      dup1\n        /* \"#utility.yul\":2967:2969   */\n      0x40\n        /* \"#utility.yul\":2955:2964   */\n      dup4\n        /* \"#utility.yul\":2946:2953   */\n      dup6\n        /* \"#utility.yul\":2942:2965   */\n      sub\n        /* \"#utility.yul\":2938:2970   */\n      slt\n        /* \"#utility.yul\":2935:3054   */\n      iszero\n      tag_204\n      jumpi\n        /* \"#utility.yul\":2973:3052   */\n      tag_205\n      tag_117\n      jump\t// in\n    tag_205:\n        /* \"#utility.yul\":2935:3054   */\n    tag_204:\n        /* \"#utility.yul\":3093:3094   */\n      0x00\n        /* \"#utility.yul\":3118:3171   */\n      tag_206\n        /* \"#utility.yul\":3163:3170   */\n      dup6\n        /* \"#utility.yul\":3154:3160   */\n      dup3\n        /* \"#utility.yul\":3143:3152   */\n      dup7\n        /* \"#utility.yul\":3139:3161   */\n      add\n        /* \"#utility.yul\":3118:3171   */\n      tag_122\n      jump\t// in\n    tag_206:\n        /* \"#utility.yul\":3108:3171   */\n      swap3\n      pop\n        /* \"#utility.yul\":3064:3181   */\n      pop\n        /* \"#utility.yul\":3220:3222   */\n      0x20\n        /* \"#utility.yul\":3246:3296   */\n      tag_207\n        /* \"#utility.yul\":3288:3295   */\n      dup6\n        /* \"#utility.yul\":3279:3285   */\n      dup3\n        /* \"#utility.yul\":3268:3277   */\n      dup7\n        /* \"#utility.yul\":3264:3286   */\n      add\n        /* \"#utility.yul\":3246:3296   */\n      tag_129\n      jump\t// in\n    tag_207:\n        /* \"#utility.yul\":3236:3296   */\n      swap2\n      pop\n        /* \"#utility.yul\":3191:3306   */\n      pop\n        /* \"#utility.yul\":2845:3313   */\n      swap3\n      pop\n      swap3\n      swap1\n      pop\n      jump\t// out\n        /* \"#utility.yul\":3319:3423   */\n    tag_130:\n        /* \"#utility.yul\":3364:3371   */\n      0x00\n        /* \"#utility.yul\":3393:3417   */\n      tag_209\n        /* \"#utility.yul\":3411:3416   */\n      dup3\n        /* \"#utility.yul\":3393:3417   */\n      tag_119\n      jump\t// in\n    tag_209:\n        /* \"#utility.yul\":3382:3417   */\n      swap1\n      pop\n        /* \"#utility.yul\":3319:3423   */\n      swap2\n      swap1\n      pop\n      jump\t// out\n        /* \"#utility.yul\":3429:3571   */\n    tag_131:\n        /* \"#utility.yul\":3532:3564   */\n      tag_211\n        /* \"#utility.yul\":3558:3563   */\n      dup2\n        /* \"#utility.yul\":3532:3564   */\n      tag_130\n      jump\t// in\n    tag_211:\n        /* \"#utility.yul\":3527:3530   */\n      dup3\n        /* \"#utility.yul\":3520:3565   */\n      mstore\n        /* \"#utility.yul\":3429:3571   */\n      pop\n      pop\n      jump\t// out\n        /* \"#utility.yul\":3577:3831   */\n    tag_39:\n        /* \"#utility.yul\":3686:3690   */\n      0x00\n        /* \"#utility.yul\":3724:3726   */\n      0x20\n        /* \"#utility.yul\":3713:3722   */\n      dup3\n        /* \"#utility.yul\":3709:3727   */\n      add\n        /* \"#utility.yul\":3701:3727   */\n      swap1\n      pop\n        /* \"#utility.yul\":3737:3824   */\n      tag_213\n        /* \"#utility.yul\":3821:3822   */\n      0x00\n        /* \"#utility.yul\":3810:3819   */\n      dup4\n        /* \"#utility.yul\":3806:3823   */\n      add\n        /* \"#utility.yul\":3797:3803   */\n      dup5\n        /* \"#utility.yul\":3737:3824   */\n      tag_131\n      jump\t// in\n    tag_213:\n        /* \"#utility.yul\":3577:3831   */\n      swap3\n      swap2\n      pop\n      pop\n      jump\t// out\n        /* \"#utility.yul\":3837:3955   */\n    tag_132:\n        /* \"#utility.yul\":3924:3948   */\n      tag_215\n        /* \"#utility.yul\":3942:3947   */\n      dup2\n        /* \"#utility.yul\":3924:3948   */\n      tag_123\n      jump\t// in\n    tag_215:\n        /* \"#utility.yul\":3919:3922   */\n      dup3\n        /* \"#utility.yul\":3912:3949   */\n      mstore\n        /* \"#utility.yul\":3837:3955   */\n      pop\n      pop\n      jump\t// out\n        /* \"#utility.yul\":3961:4183   */\n    tag_44:\n        /* \"#utility.yul\":4054:4058   */\n      0x00\n        /* \"#utility.yul\":4092:4094   */\n      0x20\n        /* \"#utility.yul\":4081:4090   */\n      dup3\n        /* \"#utility.yul\":4077:4095   */\n      add\n        /* \"#utility.yul\":4069:4095   */\n      swap1\n      pop\n        /* \"#utility.yul\":4105:4176   */\n      tag_217\n        /* \"#utility.yul\":4173:4174   */\n      0x00\n        /* \"#utility.yul\":4162:4171   */\n      dup4\n        /* \"#utility.yul\":4158:4175   */\n      add\n        /* \"#utility.yul\":4149:4155   */\n      dup5\n        /* \"#utility.yul\":4105:4176   */\n      tag_132\n      jump\t// in\n    tag_217:\n        /* \"#utility.yul\":3961:4183   */\n      swap3\n      swap2\n      pop\n      pop\n      jump\t// out\n        /* \"#utility.yul\":4189:4518   */\n    tag_48:\n        /* \"#utility.yul\":4248:4254   */\n      0x00\n        /* \"#utility.yul\":4297:4299   */\n      0x20\n        /* \"#utility.yul\":4285:4294   */\n      dup3\n        /* \"#utility.yul\":4276:4283   */\n      dup5\n        /* \"#utility.yul\":4272:4295   */\n      sub\n        /* \"#utility.yul\":4268:4300   */\n      slt\n        /* \"#utility.yul\":4265:4384   */\n      iszero\n      tag_219\n      jumpi\n        /* \"#utility.yul\":4303:4382   */\n      tag_220\n      tag_117\n      jump\t// in\n    tag_220:\n        /* \"#utility.yul\":4265:4384   */\n    tag_219:\n        /* \"#utility.yul\":4423:4424   */\n      0x00\n        /* \"#utility.yul\":4448:4501   */\n      tag_221\n        /* \"#utility.yul\":4493:4500   */\n      dup5\n        /* \"#utility.yul\":4484:4490   */\n      dup3\n        /* \"#utility.yul\":4473:4482   */\n      dup6\n        /* \"#utility.yul\":4469:4491   */\n      add\n        /* \"#utility.yul\":4448:4501   */\n      tag_122\n      jump\t// in\n    tag_221:\n        /* \"#utility.yul\":4438:4501   */\n      swap2\n      pop\n        /* \"#utility.yul\":4394:4511   */\n      pop\n        /* \"#utility.yul\":4189:4518   */\n      swap3\n      swap2\n      pop\n      pop\n      jump\t// out\n        /* \"#utility.yul\":4524:4662   */\n    tag_133:\n        /* \"#utility.yul\":4605:4637   */\n      tag_223\n        /* \"#utility.yul\":4631:4636   */\n      dup2\n        /* \"#utility.yul\":4605:4637   */\n      tag_130\n      jump\t// in\n    tag_223:\n        /* \"#utility.yul\":4598:4603   */\n      dup2\n        /* \"#utility.yul\":4595:4638   */\n      eq\n        /* \"#utility.yul\":4585:4656   */\n      tag_224\n      jumpi\n        /* \"#utility.yul\":4652:4653   */\n      0x00\n        /* \"#utility.yul\":4649:4650   */\n      dup1\n        /* \"#utility.yul\":4642:4654   */\n      revert\n        /* \"#utility.yul\":4585:4656   */\n    tag_224:\n        /* \"#utility.yul\":4524:4662   */\n      pop\n      jump\t// out\n        /* \"#utility.yul\":4668:4823   */\n    tag_134:\n        /* \"#utility.yul\":4722:4727   */\n      0x00\n        /* \"#utility.yul\":4760:4766   */\n      dup2\n        /* \"#utility.yul\":4747:4767   */\n      calldataload\n        /* \"#utility.yul\":4738:4767   */\n      swap1\n      pop\n        /* \"#utility.yul\":4776:4817   */\n      tag_226\n        /* \"#utility.yul\":4811:4816   */\n      dup2\n        /* \"#utility.yul\":4776:4817   */\n      tag_133\n      jump\t// in\n    tag_226:\n        /* \"#utility.yul\":4668:4823   */\n      swap3\n      swap2\n      pop\n      pop\n      jump\t// out\n        /* \"#utility.yul\":4829:5174   */\n    tag_67:\n        /* \"#utility.yul\":4896:4902   */\n      0x00\n        /* \"#utility.yul\":4945:4947   */\n      0x20\n        /* \"#utility.yul\":4933:4942   */\n      dup3\n        /* \"#utility.yul\":4924:4931   */\n      dup5\n        /* \"#utility.yul\":4920:4943   */\n      sub\n        /* \"#utility.yul\":4916:4948   */\n      slt\n        /* \"#utility.yul\":4913:5032   */\n      iszero\n      tag_228\n      jumpi\n        /* \"#utility.yul\":4951:5030   */\n      tag_229\n      tag_117\n      jump\t// in\n    tag_229:\n        /* \"#utility.yul\":4913:5032   */\n    tag_228:\n        /* \"#utility.yul\":5071:5072   */\n      0x00\n        /* \"#utility.yul\":5096:5157   */\n      tag_230\n        /* \"#utility.yul\":5149:5156   */\n      dup5\n        /* \"#utility.yul\":5140:5146   */\n      dup3\n        /* \"#utility.yul\":5129:5138   */\n      dup6\n        /* \"#utility.yul\":5125:5147   */\n      add\n        /* \"#utility.yul\":5096:5157   */\n      tag_134\n      jump\t// in\n    tag_230:\n        /* \"#utility.yul\":5086:5157   */\n      swap2\n      pop\n        /* \"#utility.yul\":5042:5167   */\n      pop\n        /* \"#utility.yul\":4829:5174   */\n      swap3\n      swap2\n      pop\n      pop\n      jump\t// out\n        /* \"#utility.yul\":5180:5297   */\n    tag_135:\n        /* \"#utility.yul\":5289:5290   */\n      0x00\n        /* \"#utility.yul\":5286:5287   */\n      dup1\n        /* \"#utility.yul\":5279:5291   */\n      revert\n        /* \"#utility.yul\":5303:5420   */\n    tag_136:\n        /* \"#utility.yul\":5412:5413   */\n      0x00\n        /* \"#utility.yul\":5409:5410   */\n      dup1\n        /* \"#utility.yul\":5402:5414   */\n      revert\n        /* \"#utility.yul\":5426:5528   */\n    tag_137:\n        /* \"#utility.yul\":5467:5473   */\n      0x00\n        /* \"#utility.yul\":5518:5520   */\n      0x1f\n        /* \"#utility.yul\":5514:5521   */\n      not\n        /* \"#utility.yul\":5509:5511   */\n      0x1f\n        /* \"#utility.yul\":5502:5507   */\n      dup4\n        /* \"#utility.yul\":5498:5512   */\n      add\n        /* \"#utility.yul\":5494:5522   */\n      and\n        /* \"#utility.yul\":5484:5522   */\n      swap1\n      pop\n        /* \"#utility.yul\":5426:5528   */\n      swap2\n      swap1\n      pop\n      jump\t// out\n        /* \"#utility.yul\":5534:5714   */\n    tag_138:\n        /* \"#utility.yul\":5582:5659   */\n      0x4e487b7100000000000000000000000000000000000000000000000000000000\n        /* \"#utility.yul\":5579:5580   */\n      0x00\n        /* \"#utility.yul\":5572:5660   */\n      mstore\n        /* \"#utility.yul\":5679:5683   */\n      0x41\n        /* \"#utility.yul\":5676:5677   */\n      0x04\n        /* \"#utility.yul\":5669:5684   */\n      mstore\n        /* \"#utility.yul\":5703:5707   */\n      0x24\n        /* \"#utility.yul\":5700:5701   */\n      0x00\n        /* \"#utility.yul\":5693:5708   */\n      revert\n        /* \"#utility.yul\":5720:6001   */\n    tag_139:\n        /* \"#utility.yul\":5803:5830   */\n      tag_236\n        /* \"#utility.yul\":5825:5829   */\n      dup3\n        /* \"#utility.yul\":5803:5830   */\n      tag_137\n      jump\t// in\n    tag_236:\n        /* \"#utility.yul\":5795:5801   */\n      dup2\n        /* \"#utility.yul\":5791:5831   */\n      add\n        /* \"#utility.yul\":5933:5939   */\n      dup2\n        /* \"#utility.yul\":5921:5931   */\n      dup2\n        /* \"#utility.yul\":5918:5940   */\n      lt\n        /* \"#utility.yul\":5897:5915   */\n      0xffffffffffffffff\n        /* \"#utility.yul\":5885:5895   */\n      dup3\n        /* \"#utility.yul\":5882:5916   */\n      gt\n        /* \"#utility.yul\":5879:5941   */\n      or\n        /* \"#utility.yul\":5876:5964   */\n      iszero\n      tag_237\n      jumpi\n        /* \"#utility.yul\":5944:5962   */\n      tag_238\n      tag_138\n      jump\t// in\n    tag_238:\n        /* \"#utility.yul\":5876:5964   */\n    tag_237:\n        /* \"#utility.yul\":5984:5994   */\n      dup1\n        /* \"#utility.yul\":5980:5982   */\n      0x40\n        /* \"#utility.yul\":5973:5995   */\n      mstore\n        /* \"#utility.yul\":5763:6001   */\n      pop\n        /* \"#utility.yul\":5720:6001   */\n      pop\n      pop\n      jump\t// out\n        /* \"#utility.yul\":6007:6136   */\n    tag_140:\n        /* \"#utility.yul\":6041:6047   */\n      0x00\n        /* \"#utility.yul\":6068:6088   */\n      tag_240\n      tag_116\n      jump\t// in\n    tag_240:\n        /* \"#utility.yul\":6058:6088   */\n      swap1\n      pop\n        /* \"#utility.yul\":6097:6130   */\n      tag_241\n        /* \"#utility.yul\":6125:6129   */\n      dup3\n        /* \"#utility.yul\":6117:6123   */\n      dup3\n        /* \"#utility.yul\":6097:6130   */\n      tag_139\n      jump\t// in\n    tag_241:\n        /* \"#utility.yul\":6007:6136   */\n      swap2\n      swap1\n      pop\n      jump\t// out\n        /* \"#utility.yul\":6142:6449   */\n    tag_141:\n        /* \"#utility.yul\":6203:6207   */\n      0x00\n        /* \"#utility.yul\":6293:6311   */\n      0xffffffffffffffff\n        /* \"#utility.yul\":6285:6291   */\n      dup3\n        /* \"#utility.yul\":6282:6312   */\n      gt\n        /* \"#utility.yul\":6279:6335   */\n      iszero\n      tag_243\n      jumpi\n        /* \"#utility.yul\":6315:6333   */\n      tag_244\n      tag_138\n      jump\t// in\n    tag_244:\n        /* \"#utility.yul\":6279:6335   */\n    tag_243:\n        /* \"#utility.yul\":6353:6382   */\n      tag_245\n        /* \"#utility.yul\":6375:6381   */\n      dup3\n        /* \"#utility.yul\":6353:6382   */\n      tag_137\n      jump\t// in\n    tag_245:\n        /* \"#utility.yul\":6345:6382   */\n      swap1\n      pop\n        /* \"#utility.yul\":6437:6441   */\n      0x20\n        /* \"#utility.yul\":6431:6435   */\n      dup2\n        /* \"#utility.yul\":6427:6442   */\n      add\n        /* \"#utility.yul\":6419:6442   */\n      swap1\n      pop\n        /* \"#utility.yul\":6142:6449   */\n      swap2\n      swap1\n      pop\n      jump\t// out\n        /* \"#utility.yul\":6455:6601   */\n    tag_142:\n        /* \"#utility.yul\":6552:6558   */\n      dup3\n        /* \"#utility.yul\":6547:6550   */\n      dup2\n        /* \"#utility.yul\":6542:6545   */\n      dup4\n        /* \"#utility.yul\":6529:6559   */\n      calldatacopy\n        /* \"#utility.yul\":6593:6594   */\n      0x00\n        /* \"#utility.yul\":6584:6590   */\n      dup4\n        /* \"#utility.yul\":6579:6582   */\n      dup4\n        /* \"#utility.yul\":6575:6591   */\n      add\n        /* \"#utility.yul\":6568:6595   */\n      mstore\n        /* \"#utility.yul\":6455:6601   */\n      pop\n      pop\n      pop\n      jump\t// out\n        /* \"#utility.yul\":6607:7030   */\n    tag_143:\n        /* \"#utility.yul\":6684:6689   */\n      0x00\n        /* \"#utility.yul\":6709:6774   */\n      tag_248\n        /* \"#utility.yul\":6725:6773   */\n      tag_249\n        /* \"#utility.yul\":6766:6772   */\n      dup5\n        /* \"#utility.yul\":6725:6773   */\n      tag_141\n      jump\t// in\n    tag_249:\n        /* \"#utility.yul\":6709:6774   */\n      tag_140\n      jump\t// in\n    tag_248:\n        /* \"#utility.yul\":6700:6774   */\n      swap1\n      pop\n        /* \"#utility.yul\":6797:6803   */\n      dup3\n        /* \"#utility.yul\":6790:6795   */\n      dup2\n        /* \"#utility.yul\":6783:6804   */\n      mstore\n        /* \"#utility.yul\":6835:6839   */\n      0x20\n        /* \"#utility.yul\":6828:6833   */\n      dup2\n        /* \"#utility.yul\":6824:6840   */\n      add\n        /* \"#utility.yul\":6873:6876   */\n      dup5\n        /* \"#utility.yul\":6864:6870   */\n      dup5\n        /* \"#utility.yul\":6859:6862   */\n      dup5\n        /* \"#utility.yul\":6855:6871   */\n      add\n        /* \"#utility.yul\":6852:6877   */\n      gt\n        /* \"#utility.yul\":6849:6961   */\n      iszero\n      tag_250\n      jumpi\n        /* \"#utility.yul\":6880:6959   */\n      tag_251\n      tag_136\n      jump\t// in\n    tag_251:\n        /* \"#utility.yul\":6849:6961   */\n    tag_250:\n        /* \"#utility.yul\":6970:7024   */\n      tag_252\n        /* \"#utility.yul\":7017:7023   */\n      dup5\n        /* \"#utility.yul\":7012:7015   */\n      dup3\n        /* \"#utility.yul\":7007:7010   */\n      dup6\n        /* \"#utility.yul\":6970:7024   */\n      tag_142\n      jump\t// in\n    tag_252:\n        /* \"#utility.yul\":6690:7030   */\n      pop\n        /* \"#utility.yul\":6607:7030   */\n      swap4\n      swap3\n      pop\n      pop\n      pop\n      jump\t// out\n        /* \"#utility.yul\":7049:7387   */\n    tag_144:\n        /* \"#utility.yul\":7104:7109   */\n      0x00\n        /* \"#utility.yul\":7153:7156   */\n      dup3\n        /* \"#utility.yul\":7146:7150   */\n      0x1f\n        /* \"#utility.yul\":7138:7144   */\n      dup4\n        /* \"#utility.yul\":7134:7151   */\n      add\n        /* \"#utility.yul\":7130:7157   */\n      slt\n        /* \"#utility.yul\":7120:7242   */\n      tag_254\n      jumpi\n        /* \"#utility.yul\":7161:7240   */\n      tag_255\n      tag_135\n      jump\t// in\n    tag_255:\n        /* \"#utility.yul\":7120:7242   */\n    tag_254:\n        /* \"#utility.yul\":7278:7284   */\n      dup2\n        /* \"#utility.yul\":7265:7285   */\n      calldataload\n        /* \"#utility.yul\":7303:7381   */\n      tag_256\n        /* \"#utility.yul\":7377:7380   */\n      dup5\n        /* \"#utility.yul\":7369:7375   */\n      dup3\n        /* \"#utility.yul\":7362:7366   */\n      0x20\n        /* \"#utility.yul\":7354:7360   */\n      dup7\n        /* \"#utility.yul\":7350:7367   */\n      add\n        /* \"#utility.yul\":7303:7381   */\n      tag_143\n      jump\t// in\n    tag_256:\n        /* \"#utility.yul\":7294:7381   */\n      swap2\n      pop\n        /* \"#utility.yul\":7110:7387   */\n      pop\n        /* \"#utility.yul\":7049:7387   */\n      swap3\n      swap2\n      pop\n      pop\n      jump\t// out\n        /* \"#utility.yul\":7393:8190   */\n    tag_77:\n        /* \"#utility.yul\":7479:7485   */\n      0x00\n        /* \"#utility.yul\":7487:7493   */\n      dup1\n        /* \"#utility.yul\":7495:7501   */\n      0x00\n        /* \"#utility.yul\":7544:7546   */\n      0x60\n        /* \"#utility.yul\":7532:7541   */\n      dup5\n        /* \"#utility.yul\":7523:7530   */\n      dup7\n        /* \"#utility.yul\":7519:7542   */\n      sub\n        /* \"#utility.yul\":7515:7547   */\n      slt\n        /* \"#utility.yul\":7512:7631   */\n      iszero\n      tag_258\n      jumpi\n        /* \"#utility.yul\":7550:7629   */\n      tag_259\n      tag_117\n      jump\t// in\n    tag_259:\n        /* \"#utility.yul\":7512:7631   */\n    tag_258:\n        /* \"#utility.yul\":7670:7671   */\n      0x00\n        /* \"#utility.yul\":7695:7748   */\n      tag_260\n        /* \"#utility.yul\":7740:7747   */\n      dup7\n        /* \"#utility.yul\":7731:7737   */\n      dup3\n        /* \"#utility.yul\":7720:7729   */\n      dup8\n        /* \"#utility.yul\":7716:7738   */\n      add\n        /* \"#utility.yul\":7695:7748   */\n      tag_122\n      jump\t// in\n    tag_260:\n        /* \"#utility.yul\":7685:7748   */\n      swap4\n      pop\n        /* \"#utility.yul\":7641:7758   */\n      pop\n        /* \"#utility.yul\":7797:7799   */\n      0x20\n        /* \"#utility.yul\":7823:7876   */\n      tag_261\n        /* \"#utility.yul\":7868:7875   */\n      dup7\n        /* \"#utility.yul\":7859:7865   */\n      dup3\n        /* \"#utility.yul\":7848:7857   */\n      dup8\n        /* \"#utility.yul\":7844:7866   */\n      add\n        /* \"#utility.yul\":7823:7876   */\n      tag_125\n      jump\t// in\n    tag_261:\n        /* \"#utility.yul\":7813:7876   */\n      swap3\n      pop\n        /* \"#utility.yul\":7768:7886   */\n      pop\n        /* \"#utility.yul\":7953:7955   */\n      0x40\n        /* \"#utility.yul\":7942:7951   */\n      dup5\n        /* \"#utility.yul\":7938:7956   */\n      add\n        /* \"#utility.yul\":7925:7957   */\n      calldataload\n        /* \"#utility.yul\":7984:8002   */\n      0xffffffffffffffff\n        /* \"#utility.yul\":7976:7982   */\n      dup2\n        /* \"#utility.yul\":7973:8003   */\n      gt\n        /* \"#utility.yul\":7970:8087   */\n      iszero\n      tag_262\n      jumpi\n        /* \"#utility.yul\":8006:8085   */\n      tag_263\n      tag_118\n      jump\t// in\n    tag_263:\n        /* \"#utility.yul\":7970:8087   */\n    tag_262:\n        /* \"#utility.yul\":8111:8173   */\n      tag_264\n        /* \"#utility.yul\":8165:8172   */\n      dup7\n        /* \"#utility.yul\":8156:8162   */\n      dup3\n        /* \"#utility.yul\":8145:8154   */\n      dup8\n        /* \"#utility.yul\":8141:8163   */\n      add\n        /* \"#utility.yul\":8111:8173   */\n      tag_144\n      jump\t// in\n    tag_264:\n        /* \"#utility.yul\":8101:8173   */\n      swap2\n      pop\n        /* \"#utility.yul\":7896:8183   */\n      pop\n        /* \"#utility.yul\":7393:8190   */\n      swap3\n      pop\n      swap3\n      pop\n      swap3\n      jump\t// out\n        /* \"#utility.yul\":8196:8294   */\n    tag_145:\n        /* \"#utility.yul\":8247:8253   */\n      0x00\n        /* \"#utility.yul\":8281:8286   */\n      dup2\n        /* \"#utility.yul\":8275:8287   */\n      mload\n        /* \"#utility.yul\":8265:8287   */\n      swap1\n      pop\n        /* \"#utility.yul\":8196:8294   */\n      swap2\n      swap1\n      pop\n      jump\t// out\n        /* \"#utility.yul\":8300:8468   */\n    tag_146:\n        /* \"#utility.yul\":8383:8394   */\n      0x00\n        /* \"#utility.yul\":8417:8423   */\n      dup3\n        /* \"#utility.yul\":8412:8415   */\n      dup3\n        /* \"#utility.yul\":8405:8424   */\n      mstore\n        /* \"#utility.yul\":8457:8461   */\n      0x20\n        /* \"#utility.yul\":8452:8455   */\n      dup3\n        /* \"#utility.yul\":8448:8462   */\n      add\n        /* \"#utility.yul\":8433:8462   */\n      swap1\n      pop\n        /* \"#utility.yul\":8300:8468   */\n      swap3\n      swap2\n      pop\n      pop\n      jump\t// out\n        /* \"#utility.yul\":8474:8720   */\n    tag_147:\n        /* \"#utility.yul\":8555:8556   */\n      0x00\n        /* \"#utility.yul\":8565:8678   */\n    tag_268:\n        /* \"#utility.yul\":8579:8585   */\n      dup4\n        /* \"#utility.yul\":8576:8577   */\n      dup2\n        /* \"#utility.yul\":8573:8586   */\n      lt\n        /* \"#utility.yul\":8565:8678   */\n      iszero\n      tag_270\n      jumpi\n        /* \"#utility.yul\":8664:8665   */\n      dup1\n        /* \"#utility.yul\":8659:8662   */\n      dup3\n        /* \"#utility.yul\":8655:8666   */\n      add\n        /* \"#utility.yul\":8649:8667   */\n      mload\n        /* \"#utility.yul\":8645:8646   */\n      dup2\n        /* \"#utility.yul\":8640:8643   */\n      dup5\n        /* \"#utility.yul\":8636:8647   */\n      add\n        /* \"#utility.yul\":8629:8668   */\n      mstore\n        /* \"#utility.yul\":8601:8603   */\n      0x20\n        /* \"#utility.yul\":8598:8599   */\n      dup2\n        /* \"#utility.yul\":8594:8604   */\n      add\n        /* \"#utility.yul\":8589:8604   */\n      swap1\n      pop\n        /* \"#utility.yul\":8565:8678   */\n      jump(tag_268)\n    tag_270:\n        /* \"#utility.yul\":8712:8713   */\n      0x00\n        /* \"#utility.yul\":8703:8709   */\n      dup5\n        /* \"#utility.yul\":8698:8701   */\n      dup5\n        /* \"#utility.yul\":8694:8710   */\n      add\n        /* \"#utility.yul\":8687:8714   */\n      mstore\n        /* \"#utility.yul\":8536:8720   */\n      pop\n        /* \"#utility.yul\":8474:8720   */\n      pop\n      pop\n      pop\n      jump\t// out\n        /* \"#utility.yul\":8726:9099   */\n    tag_148:\n        /* \"#utility.yul\":8812:8815   */\n      0x00\n        /* \"#utility.yul\":8840:8878   */\n      tag_272\n        /* \"#utility.yul\":8872:8877   */\n      dup3\n        /* \"#utility.yul\":8840:8878   */\n      tag_145\n      jump\t// in\n    tag_272:\n        /* \"#utility.yul\":8894:8964   */\n      tag_273\n        /* \"#utility.yul\":8957:8963   */\n      dup2\n        /* \"#utility.yul\":8952:8955   */\n      dup6\n        /* \"#utility.yul\":8894:8964   */\n      tag_146\n      jump\t// in\n    tag_273:\n        /* \"#utility.yul\":8887:8964   */\n      swap4\n      pop\n        /* \"#utility.yul\":8973:9038   */\n      tag_274\n        /* \"#utility.yul\":9031:9037   */\n      dup2\n        /* \"#utility.yul\":9026:9029   */\n      dup6\n        /* \"#utility.yul\":9019:9023   */\n      0x20\n        /* \"#utility.yul\":9012:9017   */\n      dup7\n        /* \"#utility.yul\":9008:9024   */\n      add\n        /* \"#utility.yul\":8973:9038   */\n      tag_147\n      jump\t// in\n    tag_274:\n        /* \"#utility.yul\":9063:9092   */\n      tag_275\n        /* \"#utility.yul\":9085:9091   */\n      dup2\n        /* \"#utility.yul\":9063:9092   */\n      tag_137\n      jump\t// in\n    tag_275:\n        /* \"#utility.yul\":9058:9061   */\n      dup5\n        /* \"#utility.yul\":9054:9093   */\n      add\n        /* \"#utility.yul\":9047:9093   */\n      swap2\n      pop\n        /* \"#utility.yul\":8816:9099   */\n      pop\n        /* \"#utility.yul\":8726:9099   */\n      swap3\n      swap2\n      pop\n      pop\n      jump\t// out\n        /* \"#utility.yul\":9105:9414   */\n    tag_80:\n        /* \"#utility.yul\":9216:9220   */\n      0x00\n        /* \"#utility.yul\":9254:9256   */\n      0x20\n        /* \"#utility.yul\":9243:9252   */\n      dup3\n        /* \"#utility.yul\":9239:9257   */\n      add\n        /* \"#utility.yul\":9231:9257   */\n      swap1\n      pop\n        /* \"#utility.yul\":9303:9312   */\n      dup2\n        /* \"#utility.yul\":9297:9301   */\n      dup2\n        /* \"#utility.yul\":9293:9313   */\n      sub\n        /* \"#utility.yul\":9289:9290   */\n      0x00\n        /* \"#utility.yul\":9278:9287   */\n      dup4\n        /* \"#utility.yul\":9274:9291   */\n      add\n        /* \"#utility.yul\":9267:9314   */\n      mstore\n        /* \"#utility.yul\":9331:9407   */\n      tag_277\n        /* \"#utility.yul\":9402:9406   */\n      dup2\n        /* \"#utility.yul\":9393:9399   */\n      dup5\n        /* \"#utility.yul\":9331:9407   */\n      tag_148\n      jump\t// in\n    tag_277:\n        /* \"#utility.yul\":9323:9407   */\n      swap1\n      pop\n        /* \"#utility.yul\":9105:9414   */\n      swap3\n      swap2\n      pop\n      pop\n      jump\t// out\n        /* \"#utility.yul\":9420:9589   */\n    tag_149:\n        /* \"#utility.yul\":9504:9515   */\n      0x00\n        /* \"#utility.yul\":9538:9544   */\n      dup3\n        /* \"#utility.yul\":9533:9536   */\n      dup3\n        /* \"#utility.yul\":9526:9545   */\n      mstore\n        /* \"#utility.yul\":9578:9582   */\n      0x20\n        /* \"#utility.yul\":9573:9576   */\n      dup3\n        /* \"#utility.yul\":9569:9583   */\n      add\n        /* \"#utility.yul\":9554:9583   */\n      swap1\n      pop\n        /* \"#utility.yul\":9420:9589   */\n      swap3\n      swap2\n      pop\n      pop\n      jump\t// out\n        /* \"#utility.yul\":9595:9825   */\n    tag_150:\n        /* \"#utility.yul\":9735:9769   */\n      0x4f6e6c79204f776e65722063616e2073657420616c6c6f77616e636573212120\n        /* \"#utility.yul\":9731:9732   */\n      0x00\n        /* \"#utility.yul\":9723:9729   */\n      dup3\n        /* \"#utility.yul\":9719:9733   */\n      add\n        /* \"#utility.yul\":9712:9770   */\n      mstore\n        /* \"#utility.yul\":9804:9817   */\n      0x41626f7274696e672e2e2e000000000000000000000000000000000000000000\n        /* \"#utility.yul\":9799:9801   */\n      0x20\n        /* \"#utility.yul\":9791:9797   */\n      dup3\n        /* \"#utility.yul\":9787:9802   */\n      add\n        /* \"#utility.yul\":9780:9818   */\n      mstore\n        /* \"#utility.yul\":9595:9825   */\n      pop\n      jump\t// out\n        /* \"#utility.yul\":9831:10197   */\n    tag_151:\n        /* \"#utility.yul\":9973:9976   */\n      0x00\n        /* \"#utility.yul\":9994:10061   */\n      tag_281\n        /* \"#utility.yul\":10058:10060   */\n      0x2b\n        /* \"#utility.yul\":10053:10056   */\n      dup4\n        /* \"#utility.yul\":9994:10061   */\n      tag_149\n      jump\t// in\n    tag_281:\n        /* \"#utility.yul\":9987:10061   */\n      swap2\n      pop\n        /* \"#utility.yul\":10070:10163   */\n      tag_282\n        /* \"#utility.yul\":10159:10162   */\n      dup3\n        /* \"#utility.yul\":10070:10163   */\n      tag_150\n      jump\t// in\n    tag_282:\n        /* \"#utility.yul\":10188:10190   */\n      0x40\n        /* \"#utility.yul\":10183:10186   */\n      dup3\n        /* \"#utility.yul\":10179:10191   */\n      add\n        /* \"#utility.yul\":10172:10191   */\n      swap1\n      pop\n        /* \"#utility.yul\":9831:10197   */\n      swap2\n      swap1\n      pop\n      jump\t// out\n        /* \"#utility.yul\":10203:10622   */\n    tag_84:\n        /* \"#utility.yul\":10369:10373   */\n      0x00\n        /* \"#utility.yul\":10407:10409   */\n      0x20\n        /* \"#utility.yul\":10396:10405   */\n      dup3\n        /* \"#utility.yul\":10392:10410   */\n      add\n        /* \"#utility.yul\":10384:10410   */\n      swap1\n      pop\n        /* \"#utility.yul\":10456:10465   */\n      dup2\n        /* \"#utility.yul\":10450:10454   */\n      dup2\n        /* \"#utility.yul\":10446:10466   */\n      sub\n        /* \"#utility.yul\":10442:10443   */\n      0x00\n        /* \"#utility.yul\":10431:10440   */\n      dup4\n        /* \"#utility.yul\":10427:10444   */\n      add\n        /* \"#utility.yul\":10420:10467   */\n      mstore\n        /* \"#utility.yul\":10484:10615   */\n      tag_284\n        /* \"#utility.yul\":10610:10614   */\n      dup2\n        /* \"#utility.yul\":10484:10615   */\n      tag_151\n      jump\t// in\n    tag_284:\n        /* \"#utility.yul\":10476:10615   */\n      swap1\n      pop\n        /* \"#utility.yul\":10203:10622   */\n      swap2\n      swap1\n      pop\n      jump\t// out\n        /* \"#utility.yul\":10628:10866   */\n    tag_152:\n        /* \"#utility.yul\":10768:10802   */\n      0x4f6e6c7920477561726469616e732063616e2073756767657374206e65787420\n        /* \"#utility.yul\":10764:10765   */\n      0x00\n        /* \"#utility.yul\":10756:10762   */\n      dup3\n        /* \"#utility.yul\":10752:10766   */\n      add\n        /* \"#utility.yul\":10745:10803   */\n      mstore\n        /* \"#utility.yul\":10837:10858   */\n      0x4f776e657221212041626f7274696e672e2e2e00000000000000000000000000\n        /* \"#utility.yul\":10832:10834   */\n      0x20\n        /* \"#utility.yul\":10824:10830   */\n      dup3\n        /* \"#utility.yul\":10820:10835   */\n      add\n        /* \"#utility.yul\":10813:10859   */\n      mstore\n        /* \"#utility.yul\":10628:10866   */\n      pop\n      jump\t// out\n        /* \"#utility.yul\":10872:11238   */\n    tag_153:\n        /* \"#utility.yul\":11014:11017   */\n      0x00\n        /* \"#utility.yul\":11035:11102   */\n      tag_287\n        /* \"#utility.yul\":11099:11101   */\n      0x33\n        /* \"#utility.yul\":11094:11097   */\n      dup4\n        /* \"#utility.yul\":11035:11102   */\n      tag_149\n      jump\t// in\n    tag_287:\n        /* \"#utility.yul\":11028:11102   */\n      swap2\n      pop\n        /* \"#utility.yul\":11111:11204   */\n      tag_288\n        /* \"#utility.yul\":11200:11203   */\n      dup3\n        /* \"#utility.yul\":11111:11204   */\n      tag_152\n      jump\t// in\n    tag_288:\n        /* \"#utility.yul\":11229:11231   */\n      0x40\n        /* \"#utility.yul\":11224:11227   */\n      dup3\n        /* \"#utility.yul\":11220:11232   */\n      add\n        /* \"#utility.yul\":11213:11232   */\n      swap1\n      pop\n        /* \"#utility.yul\":10872:11238   */\n      swap2\n      swap1\n      pop\n      jump\t// out\n        /* \"#utility.yul\":11244:11663   */\n    tag_90:\n        /* \"#utility.yul\":11410:11414   */\n      0x00\n        /* \"#utility.yul\":11448:11450   */\n      0x20\n        /* \"#utility.yul\":11437:11446   */\n      dup3\n        /* \"#utility.yul\":11433:11451   */\n      add\n        /* \"#utility.yul\":11425:11451   */\n      swap1\n      pop\n        /* \"#utility.yul\":11497:11506   */\n      dup2\n        /* \"#utility.yul\":11491:11495   */\n      dup2\n        /* \"#utility.yul\":11487:11507   */\n      sub\n        /* \"#utility.yul\":11483:11484   */\n      0x00\n        /* \"#utility.yul\":11472:11481   */\n      dup4\n        /* \"#utility.yul\":11468:11485   */\n      add\n        /* \"#utility.yul\":11461:11508   */\n      mstore\n        /* \"#utility.yul\":11525:11656   */\n      tag_290\n        /* \"#utility.yul\":11651:11655   */\n      dup2\n        /* \"#utility.yul\":11525:11656   */\n      tag_153\n      jump\t// in\n    tag_290:\n        /* \"#utility.yul\":11517:11656   */\n      swap1\n      pop\n        /* \"#utility.yul\":11244:11663   */\n      swap2\n      swap1\n      pop\n      jump\t// out\n        /* \"#utility.yul\":11669:11890   */\n    tag_154:\n        /* \"#utility.yul\":11809:11843   */\n      0x4561636820477561726469616e2063616e206f6e6c7920766f7465206f6e6365\n        /* \"#utility.yul\":11805:11806   */\n      0x00\n        /* \"#utility.yul\":11797:11803   */\n      dup3\n        /* \"#utility.yul\":11793:11807   */\n      add\n        /* \"#utility.yul\":11786:11844   */\n      mstore\n        /* \"#utility.yul\":11878:11882   */\n      0x2121000000000000000000000000000000000000000000000000000000000000\n        /* \"#utility.yul\":11873:11875   */\n      0x20\n        /* \"#utility.yul\":11865:11871   */\n      dup3\n        /* \"#utility.yul\":11861:11876   */\n      add\n        /* \"#utility.yul\":11854:11883   */\n      mstore\n        /* \"#utility.yul\":11669:11890   */\n      pop\n      jump\t// out\n        /* \"#utility.yul\":11896:12262   */\n    tag_155:\n        /* \"#utility.yul\":12038:12041   */\n      0x00\n        /* \"#utility.yul\":12059:12126   */\n      tag_293\n        /* \"#utility.yul\":12123:12125   */\n      0x22\n        /* \"#utility.yul\":12118:12121   */\n      dup4\n        /* \"#utility.yul\":12059:12126   */\n      tag_149\n      jump\t// in\n    tag_293:\n        /* \"#utility.yul\":12052:12126   */\n      swap2\n      pop\n        /* \"#utility.yul\":12135:12228   */\n      tag_294\n        /* \"#utility.yul\":12224:12227   */\n      dup3\n        /* \"#utility.yul\":12135:12228   */\n      tag_154\n      jump\t// in\n    tag_294:\n        /* \"#utility.yul\":12253:12255   */\n      0x40\n        /* \"#utility.yul\":12248:12251   */\n      dup3\n        /* \"#utility.yul\":12244:12256   */\n      add\n        /* \"#utility.yul\":12237:12256   */\n      swap1\n      pop\n        /* \"#utility.yul\":11896:12262   */\n      swap2\n      swap1\n      pop\n      jump\t// out\n        /* \"#utility.yul\":12268:12687   */\n    tag_93:\n        /* \"#utility.yul\":12434:12438   */\n      0x00\n        /* \"#utility.yul\":12472:12474   */\n      0x20\n        /* \"#utility.yul\":12461:12470   */\n      dup3\n        /* \"#utility.yul\":12457:12475   */\n      add\n        /* \"#utility.yul\":12449:12475   */\n      swap1\n      pop\n        /* \"#utility.yul\":12521:12530   */\n      dup2\n        /* \"#utility.yul\":12515:12519   */\n      dup2\n        /* \"#utility.yul\":12511:12531   */\n      sub\n        /* \"#utility.yul\":12507:12508   */\n      0x00\n        /* \"#utility.yul\":12496:12505   */\n      dup4\n        /* \"#utility.yul\":12492:12509   */\n      add\n        /* \"#utility.yul\":12485:12532   */\n      mstore\n        /* \"#utility.yul\":12549:12680   */\n      tag_296\n        /* \"#utility.yul\":12675:12679   */\n      dup2\n        /* \"#utility.yul\":12549:12680   */\n      tag_155\n      jump\t// in\n    tag_296:\n        /* \"#utility.yul\":12541:12680   */\n      swap1\n      pop\n        /* \"#utility.yul\":12268:12687   */\n      swap2\n      swap1\n      pop\n      jump\t// out\n        /* \"#utility.yul\":12693:12873   */\n    tag_156:\n        /* \"#utility.yul\":12741:12818   */\n      0x4e487b7100000000000000000000000000000000000000000000000000000000\n        /* \"#utility.yul\":12738:12739   */\n      0x00\n        /* \"#utility.yul\":12731:12819   */\n      mstore\n        /* \"#utility.yul\":12838:12842   */\n      0x11\n        /* \"#utility.yul\":12835:12836   */\n      0x04\n        /* \"#utility.yul\":12828:12843   */\n      mstore\n        /* \"#utility.yul\":12862:12866   */\n      0x24\n        /* \"#utility.yul\":12859:12860   */\n      0x00\n        /* \"#utility.yul\":12852:12867   */\n      revert\n        /* \"#utility.yul\":12879:13112   */\n    tag_96:\n        /* \"#utility.yul\":12918:12921   */\n      0x00\n        /* \"#utility.yul\":12941:12965   */\n      tag_299\n        /* \"#utility.yul\":12959:12964   */\n      dup3\n        /* \"#utility.yul\":12941:12965   */\n      tag_123\n      jump\t// in\n    tag_299:\n        /* \"#utility.yul\":12932:12965   */\n      swap2\n      pop\n        /* \"#utility.yul\":12987:13053   */\n      0xffffffffffffffffffffffffffffffffffffffffffffffffffffffffffffffff\n        /* \"#utility.yul\":12980:12985   */\n      dup3\n        /* \"#utility.yul\":12977:13054   */\n      sub\n        /* \"#utility.yul\":12974:13077   */\n      tag_300\n      jumpi\n        /* \"#utility.yul\":13057:13075   */\n      tag_301\n      tag_156\n      jump\t// in\n    tag_301:\n        /* \"#utility.yul\":12974:13077   */\n    tag_300:\n        /* \"#utility.yul\":13104:13105   */\n      0x01\n        /* \"#utility.yul\":13097:13102   */\n      dup3\n        /* \"#utility.yul\":13093:13106   */\n      add\n        /* \"#utility.yul\":13086:13106   */\n      swap1\n      pop\n        /* \"#utility.yul\":12879:13112   */\n      swap2\n      swap1\n      pop\n      jump\t// out\n        /* \"#utility.yul\":13118:13358   */\n    tag_157:\n        /* \"#utility.yul\":13258:13292   */\n      0x4e6f7420616c6c6f77656420746f207472616e7361637420746f207468617420\n        /* \"#utility.yul\":13254:13255   */\n      0x00\n        /* \"#utility.yul\":13246:13252   */\n      dup3\n        /* \"#utility.yul\":13242:13256   */\n      add\n        /* \"#utility.yul\":13235:13293   */\n      mstore\n        /* \"#utility.yul\":13327:13350   */\n      0x6164647265737321212041626f7274696e672e2e2e0000000000000000000000\n        /* \"#utility.yul\":13322:13324   */\n      0x20\n        /* \"#utility.yul\":13314:13320   */\n      dup3\n        /* \"#utility.yul\":13310:13325   */\n      add\n        /* \"#utility.yul\":13303:13351   */\n      mstore\n        /* \"#utility.yul\":13118:13358   */\n      pop\n      jump\t// out\n        /* \"#utility.yul\":13364:13730   */\n    tag_158:\n        /* \"#utility.yul\":13506:13509   */\n      0x00\n        /* \"#utility.yul\":13527:13594   */\n      tag_304\n        /* \"#utility.yul\":13591:13593   */\n      0x35\n        /* \"#utility.yul\":13586:13589   */\n      dup4\n        /* \"#utility.yul\":13527:13594   */\n      tag_149\n      jump\t// in\n    tag_304:\n        /* \"#utility.yul\":13520:13594   */\n      swap2\n      pop\n        /* \"#utility.yul\":13603:13696   */\n      tag_305\n        /* \"#utility.yul\":13692:13695   */\n      dup3\n        /* \"#utility.yul\":13603:13696   */\n      tag_157\n      jump\t// in\n    tag_305:\n        /* \"#utility.yul\":13721:13723   */\n      0x40\n        /* \"#utility.yul\":13716:13719   */\n      dup3\n        /* \"#utility.yul\":13712:13724   */\n      add\n        /* \"#utility.yul\":13705:13724   */\n      swap1\n      pop\n        /* \"#utility.yul\":13364:13730   */\n      swap2\n      swap1\n      pop\n      jump\t// out\n        /* \"#utility.yul\":13736:14155   */\n    tag_102:\n        /* \"#utility.yul\":13902:13906   */\n      0x00\n        /* \"#utility.yul\":13940:13942   */\n      0x20\n        /* \"#utility.yul\":13929:13938   */\n      dup3\n        /* \"#utility.yul\":13925:13943   */\n      add\n        /* \"#utility.yul\":13917:13943   */\n      swap1\n      pop\n        /* \"#utility.yul\":13989:13998   */\n      dup2\n        /* \"#utility.yul\":13983:13987   */\n      dup2\n        /* \"#utility.yul\":13979:13999   */\n      sub\n        /* \"#utility.yul\":13975:13976   */\n      0x00\n        /* \"#utility.yul\":13964:13973   */\n      dup4\n        /* \"#utility.yul\":13960:13977   */\n      add\n        /* \"#utility.yul\":13953:14000   */\n      mstore\n        /* \"#utility.yul\":14017:14148   */\n      tag_307\n        /* \"#utility.yul\":14143:14147   */\n      dup2\n        /* \"#utility.yul\":14017:14148   */\n      tag_158\n      jump\t// in\n    tag_307:\n        /* \"#utility.yul\":14009:14148   */\n      swap1\n      pop\n        /* \"#utility.yul\":13736:14155   */\n      swap2\n      swap1\n      pop\n      jump\t// out\n        /* \"#utility.yul\":14161:14390   */\n    tag_159:\n        /* \"#utility.yul\":14301:14335   */\n      0x416d6f756e7420657863656564732074686520616c6c6f77616e636521212041\n        /* \"#utility.yul\":14297:14298   */\n      0x00\n        /* \"#utility.yul\":14289:14295   */\n      dup3\n        /* \"#utility.yul\":14285:14299   */\n      add\n        /* \"#utility.yul\":14278:14336   */\n      mstore\n        /* \"#utility.yul\":14370:14382   */\n      0x626f7274696e672e2e2e00000000000000000000000000000000000000000000\n        /* \"#utility.yul\":14365:14367   */\n      0x20\n        /* \"#utility.yul\":14357:14363   */\n      dup3\n        /* \"#utility.yul\":14353:14368   */\n      add\n        /* \"#utility.yul\":14346:14383   */\n      mstore\n        /* \"#utility.yul\":14161:14390   */\n      pop\n      jump\t// out\n        /* \"#utility.yul\":14396:14762   */\n    tag_160:\n        /* \"#utility.yul\":14538:14541   */\n      0x00\n        /* \"#utility.yul\":14559:14626   */\n      tag_310\n        /* \"#utility.yul\":14623:14625   */\n      0x2a\n        /* \"#utility.yul\":14618:14621   */\n      dup4\n        /* \"#utility.yul\":14559:14626   */\n      tag_149\n      jump\t// in\n    tag_310:\n        /* \"#utility.yul\":14552:14626   */\n      swap2\n      pop\n        /* \"#utility.yul\":14635:14728   */\n      tag_311\n        /* \"#utility.yul\":14724:14727   */\n      dup3\n        /* \"#utility.yul\":14635:14728   */\n      tag_159\n      jump\t// in\n    tag_311:\n        /* \"#utility.yul\":14753:14755   */\n      0x40\n        /* \"#utility.yul\":14748:14751   */\n      dup3\n        /* \"#utility.yul\":14744:14756   */\n      add\n        /* \"#utility.yul\":14737:14756   */\n      swap1\n      pop\n        /* \"#utility.yul\":14396:14762   */\n      swap2\n      swap1\n      pop\n      jump\t// out\n        /* \"#utility.yul\":14768:15187   */\n    tag_105:\n        /* \"#utility.yul\":14934:14938   */\n      0x00\n        /* \"#utility.yul\":14972:14974   */\n      0x20\n        /* \"#utility.yul\":14961:14970   */\n      dup3\n        /* \"#utility.yul\":14957:14975   */\n      add\n        /* \"#utility.yul\":14949:14975   */\n      swap1\n      pop\n        /* \"#utility.yul\":15021:15030   */\n      dup2\n        /* \"#utility.yul\":15015:15019   */\n      dup2\n        /* \"#utility.yul\":15011:15031   */\n      sub\n        /* \"#utility.yul\":15007:15008   */\n      0x00\n        /* \"#utility.yul\":14996:15005   */\n      dup4\n        /* \"#utility.yul\":14992:15009   */\n      add\n        /* \"#utility.yul\":14985:15032   */\n      mstore\n        /* \"#utility.yul\":15049:15180   */\n      tag_313\n        /* \"#utility.yul\":15175:15179   */\n      dup2\n        /* \"#utility.yul\":15049:15180   */\n      tag_160\n      jump\t// in\n    tag_313:\n        /* \"#utility.yul\":15041:15180   */\n      swap1\n      pop\n        /* \"#utility.yul\":14768:15187   */\n      swap2\n      swap1\n      pop\n      jump\t// out\n        /* \"#utility.yul\":15193:15387   */\n    tag_107:\n        /* \"#utility.yul\":15233:15237   */\n      0x00\n        /* \"#utility.yul\":15253:15273   */\n      tag_315\n        /* \"#utility.yul\":15271:15272   */\n      dup3\n        /* \"#utility.yul\":15253:15273   */\n      tag_123\n      jump\t// in\n    tag_315:\n        /* \"#utility.yul\":15248:15273   */\n      swap2\n      pop\n        /* \"#utility.yul\":15287:15307   */\n      tag_316\n        /* \"#utility.yul\":15305:15306   */\n      dup4\n        /* \"#utility.yul\":15287:15307   */\n      tag_123\n      jump\t// in\n    tag_316:\n        /* \"#utility.yul\":15282:15307   */\n      swap3\n      pop\n        /* \"#utility.yul\":15331:15332   */\n      dup3\n        /* \"#utility.yul\":15328:15329   */\n      dup3\n        /* \"#utility.yul\":15324:15333   */\n      sub\n        /* \"#utility.yul\":15316:15333   */\n      swap1\n      pop\n        /* \"#utility.yul\":15355:15356   */\n      dup2\n        /* \"#utility.yul\":15349:15353   */\n      dup2\n        /* \"#utility.yul\":15346:15357   */\n      gt\n        /* \"#utility.yul\":15343:15380   */\n      iszero\n      tag_317\n      jumpi\n        /* \"#utility.yul\":15360:15378   */\n      tag_318\n      tag_156\n      jump\t// in\n    tag_318:\n        /* \"#utility.yul\":15343:15380   */\n    tag_317:\n        /* \"#utility.yul\":15193:15387   */\n      swap3\n      swap2\n      pop\n      pop\n      jump\t// out\n        /* \"#utility.yul\":15393:15540   */\n    tag_161:\n        /* \"#utility.yul\":15494:15505   */\n      0x00\n        /* \"#utility.yul\":15531:15534   */\n      dup2\n        /* \"#utility.yul\":15516:15534   */\n      swap1\n      pop\n        /* \"#utility.yul\":15393:15540   */\n      swap3\n      swap2\n      pop\n      pop\n      jump\t// out\n        /* \"#utility.yul\":15546:15932   */\n    tag_162:\n        /* \"#utility.yul\":15650:15653   */\n      0x00\n        /* \"#utility.yul\":15678:15716   */\n      tag_321\n        /* \"#utility.yul\":15710:15715   */\n      dup3\n        /* \"#utility.yul\":15678:15716   */\n      tag_145\n      jump\t// in\n    tag_321:\n        /* \"#utility.yul\":15732:15820   */\n      tag_322\n        /* \"#utility.yul\":15813:15819   */\n      dup2\n        /* \"#utility.yul\":15808:15811   */\n      dup6\n        /* \"#utility.yul\":15732:15820   */\n      tag_161\n      jump\t// in\n    tag_322:\n        /* \"#utility.yul\":15725:15820   */\n      swap4\n      pop\n        /* \"#utility.yul\":15829:15894   */\n      tag_323\n        /* \"#utility.yul\":15887:15893   */\n      dup2\n        /* \"#utility.yul\":15882:15885   */\n      dup6\n        /* \"#utility.yul\":15875:15879   */\n      0x20\n        /* \"#utility.yul\":15868:15873   */\n      dup7\n        /* \"#utility.yul\":15864:15880   */\n      add\n        /* \"#utility.yul\":15829:15894   */\n      tag_147\n      jump\t// in\n    tag_323:\n        /* \"#utility.yul\":15919:15925   */\n      dup1\n        /* \"#utility.yul\":15914:15917   */\n      dup5\n        /* \"#utility.yul\":15910:15926   */\n      add\n        /* \"#utility.yul\":15903:15926   */\n      swap2\n      pop\n        /* \"#utility.yul\":15654:15932   */\n      pop\n        /* \"#utility.yul\":15546:15932   */\n      swap3\n      swap2\n      pop\n      pop\n      jump\t// out\n        /* \"#utility.yul\":15938:16209   */\n    tag_109:\n        /* \"#utility.yul\":16068:16071   */\n      0x00\n        /* \"#utility.yul\":16090:16183   */\n      tag_325\n        /* \"#utility.yul\":16179:16182   */\n      dup3\n        /* \"#utility.yul\":16170:16176   */\n      dup5\n        /* \"#utility.yul\":16090:16183   */\n      tag_162\n      jump\t// in\n    tag_325:\n        /* \"#utility.yul\":16083:16183   */\n      swap2\n      pop\n        /* \"#utility.yul\":16200:16203   */\n      dup2\n        /* \"#utility.yul\":16193:16203   */\n      swap1\n      pop\n        /* \"#utility.yul\":15938:16209   */\n      swap3\n      swap2\n      pop\n      pop\n      jump\t// out\n        /* \"#utility.yul\":16215:16437   */\n    tag_163:\n        /* \"#utility.yul\":16355:16389   */\n      0x5472616e7366657220756e7375636365737366756c6c212041626f7274696e67\n        /* \"#utility.yul\":16351:16352   */\n      0x00\n        /* \"#utility.yul\":16343:16349   */\n      dup3\n        /* \"#utility.yul\":16339:16353   */\n      add\n        /* \"#utility.yul\":16332:16390   */\n      mstore\n        /* \"#utility.yul\":16424:16429   */\n      0x2e2e2e0000000000000000000000000000000000000000000000000000000000\n        /* \"#utility.yul\":16419:16421   */\n      0x20\n        /* \"#utility.yul\":16411:16417   */\n      dup3\n        /* \"#utility.yul\":16407:16422   */\n      add\n        /* \"#utility.yul\":16400:16430   */\n      mstore\n        /* \"#utility.yul\":16215:16437   */\n      pop\n      jump\t// out\n        /* \"#utility.yul\":16443:16809   */\n    tag_164:\n        /* \"#utility.yul\":16585:16588   */\n      0x00\n        /* \"#utility.yul\":16606:16673   */\n      tag_328\n        /* \"#utility.yul\":16670:16672   */\n      0x23\n        /* \"#utility.yul\":16665:16668   */\n      dup4\n        /* \"#utility.yul\":16606:16673   */\n      tag_149\n      jump\t// in\n    tag_328:\n        /* \"#utility.yul\":16599:16673   */\n      swap2\n      pop\n        /* \"#utility.yul\":16682:16775   */\n      tag_329\n        /* \"#utility.yul\":16771:16774   */\n      dup3\n        /* \"#utility.yul\":16682:16775   */\n      tag_163\n      jump\t// in\n    tag_329:\n        /* \"#utility.yul\":16800:16802   */\n      0x40\n        /* \"#utility.yul\":16795:16798   */\n      dup3\n        /* \"#utility.yul\":16791:16803   */\n      add\n        /* \"#utility.yul\":16784:16803   */\n      swap1\n      pop\n        /* \"#utility.yul\":16443:16809   */\n      swap2\n      swap1\n      pop\n      jump\t// out\n        /* \"#utility.yul\":16815:17234   */\n    tag_115:\n        /* \"#utility.yul\":16981:16985   */\n      0x00\n        /* \"#utility.yul\":17019:17021   */\n      0x20\n        /* \"#utility.yul\":17008:17017   */\n      dup3\n        /* \"#utility.yul\":17004:17022   */\n      add\n        /* \"#utility.yul\":16996:17022   */\n      swap1\n      pop\n        /* \"#utility.yul\":17068:17077   */\n      dup2\n        /* \"#utility.yul\":17062:17066   */\n      dup2\n        /* \"#utility.yul\":17058:17078   */\n      sub\n        /* \"#utility.yul\":17054:17055   */\n      0x00\n        /* \"#utility.yul\":17043:17052   */\n      dup4\n        /* \"#utility.yul\":17039:17056   */\n      add\n        /* \"#utility.yul\":17032:17079   */\n      mstore\n        /* \"#utility.yul\":17096:17227   */\n      tag_331\n        /* \"#utility.yul\":17222:17226   */\n      dup2\n        /* \"#utility.yul\":17096:17227   */\n      tag_164\n      jump\t// in\n    tag_331:\n        /* \"#utility.yul\":17088:17227   */\n      swap1\n      pop\n        /* \"#utility.yul\":16815:17234   */\n      swap2\n      swap1\n      pop\n      jump\t// out\n\n    auxdata: 0xa2646970667358221220547fe8a524ffc2325b78dc8608e3e97caf73d8ba7628b010f987d441b019c93a64736f6c63430008100033\n}\n",
				"bytecode": {
					"linkReferences": {},
					"object": "608060405234801561001057600080fd5b50336000806101000a81548173ffffffffffffffffffffffffffffffffffffffff021916908373ffffffffffffffffffffffffffffffffffffffff16021790555061150b806100606000396000f3fe6080604052600436106100ab5760003560e01c806381e5a9f01161006457806381e5a9f0146101d95780638da5cb5b146102045780638f8149bd1461022f57806399dca43d1461026c578063babcc53914610295578063be45fd62146102d2576100b2565b8063139c7b5d146100b75780631b621171146100e05780632b8a1c5a1461011d57806369f3331d146101465780636f30cc1f14610171578063711dca2d1461019c576100b2565b366100b257005b600080fd5b3480156100c357600080fd5b506100de60048036038101906100d99190610bf6565b61030f565b005b3480156100ec57600080fd5b5061010760048036038101906101029190610c36565b610447565b6040516101149190610c91565b60405180910390f35b34801561012957600080fd5b50610144600480360381019061013f9190610cd8565b610476565b005b34801561015257600080fd5b5061015b6104d1565b6040516101689190610d39565b60405180910390f35b34801561017d57600080fd5b506101866104f7565b6040516101939190610d63565b60405180910390f35b3480156101a857600080fd5b506101c360048036038101906101be9190610d7e565b6104fc565b6040516101d09190610c91565b60405180910390f35b3480156101e557600080fd5b506101ee61051c565b6040516101fb9190610d63565b60405180910390f35b34801561021057600080fd5b50610219610522565b6040516102269190610d39565b60405180910390f35b34801561023b57600080fd5b5061025660048036038101906102519190610d7e565b610546565b6040516102639190610d63565b60405180910390f35b34801561027857600080fd5b50610293600480360381019061028e9190610dd7565b61055e565b005b3480156102a157600080fd5b506102bc60048036038101906102b79190610d7e565b6108b8565b6040516102c99190610c91565b60405180910390f35b3480156102de57600080fd5b506102f960048036038101906102f49190610f4a565b6108d8565b6040516103069190611038565b60405180910390f35b60008054906101000a900473ffffffffffffffffffffffffffffffffffffffff1673ffffffffffffffffffffffffffffffffffffffff163373ffffffffffffffffffffffffffffffffffffffff161461039d576040517f08c379a0000000000000000000000000000000000000000000000000000000008152600401610394906110dd565b60405180910390fd5b80600160008473ffffffffffffffffffffffffffffffffffffffff1673ffffffffffffffffffffffffffffffffffffffff168152602001908152602001600020819055506000811115610443576001600260008473ffffffffffffffffffffffffffffffffffffffff1673ffffffffffffffffffffffffffffffffffffffff16815260200190815260200160002060006101000a81548160ff0219169083151502179055505b5050565b60066020528160005260406000206020528060005260406000206000915091509054906101000a900460ff1681565b80600360008473ffffffffffffffffffffffffffffffffffffffff1673ffffffffffffffffffffffffffffffffffffffff16815260200190815260200160002060006101000a81548160ff0219169083151502179055505050565b600460009054906101000a900473ffffffffffffffffffffffffffffffffffffffff1681565b600381565b60036020528060005260406000206000915054906101000a900460ff1681565b60055481565b60008054906101000a900473ffffffffffffffffffffffffffffffffffffffff1681565b60016020528060005260406000206000915090505481565b600360003373ffffffffffffffffffffffffffffffffffffffff1673ffffffffffffffffffffffffffffffffffffffff16815260200190815260200160002060009054906101000a900460ff166105ea576040517f08c379a00000000000000000000000000000000000000000000000000000000081526004016105e19061116f565b60405180910390fd5b60001515600660008373ffffffffffffffffffffffffffffffffffffffff1673ffffffffffffffffffffffffffffffffffffffff16815260200190815260200160002060003373ffffffffffffffffffffffffffffffffffffffff1673ffffffffffffffffffffffffffffffffffffffff16815260200190815260200160002060009054906101000a900460ff161515146106ba576040517f08c379a00000000000000000000000000000000000000000000000000000000081526004016106b190611201565b60405180910390fd5b600460009054906101000a900473ffffffffffffffffffffffffffffffffffffffff1673ffffffffffffffffffffffffffffffffffffffff168173ffffffffffffffffffffffffffffffffffffffff161461075957600060058190555080600460006101000a81548173ffffffffffffffffffffffffffffffffffffffff021916908373ffffffffffffffffffffffffffffffffffffffff1602179055505b6005600081548092919061076c90611250565b91905055506001600660008373ffffffffffffffffffffffffffffffffffffffff1673ffffffffffffffffffffffffffffffffffffffff16815260200190815260200160002060003373ffffffffffffffffffffffffffffffffffffffff1673ffffffffffffffffffffffffffffffffffffffff16815260200190815260200160002060006101000a81548160ff0219169083151502179055506003600554106108b557600460009054906101000a900473ffffffffffffffffffffffffffffffffffffffff166000806101000a81548173ffffffffffffffffffffffffffffffffffffffff021916908373ffffffffffffffffffffffffffffffffffffffff1602179055506000600460006101000a81548173ffffffffffffffffffffffffffffffffffffffff021916908373ffffffffffffffffffffffffffffffffffffffff1602179055505b50565b60026020528060005260406000206000915054906101000a900460ff1681565b606060008054906101000a900473ffffffffffffffffffffffffffffffffffffffff1673ffffffffffffffffffffffffffffffffffffffff163373ffffffffffffffffffffffffffffffffffffffff1614610a9257600260003373ffffffffffffffffffffffffffffffffffffffff1673ffffffffffffffffffffffffffffffffffffffff16815260200190815260200160002060009054906101000a900460ff166109b9576040517f08c379a00000000000000000000000000000000000000000000000000000000081526004016109b09061130a565b60405180910390fd5b600160003373ffffffffffffffffffffffffffffffffffffffff1673ffffffffffffffffffffffffffffffffffffffff16815260200190815260200160002054831115610a3b576040517f08c379a0000000000000000000000000000000000000000000000000000000008152600401610a329061139c565b60405180910390fd5b82600160003373ffffffffffffffffffffffffffffffffffffffff1673ffffffffffffffffffffffffffffffffffffffff1681526020019081526020016000206000828254610a8a91906113bc565b925050819055505b6000808573ffffffffffffffffffffffffffffffffffffffff168585604051610abb919061142c565b60006040518083038185875af1925050503d8060008114610af8576040519150601f19603f3d011682016040523d82523d6000602084013e610afd565b606091505b509150915081610b42576040517f08c379a0000000000000000000000000000000000000000000000000000000008152600401610b39906114b5565b60405180910390fd5b80925050509392505050565b6000604051905090565b600080fd5b600080fd5b600073ffffffffffffffffffffffffffffffffffffffff82169050919050565b6000610b8d82610b62565b9050919050565b610b9d81610b82565b8114610ba857600080fd5b50565b600081359050610bba81610b94565b92915050565b6000819050919050565b610bd381610bc0565b8114610bde57600080fd5b50565b600081359050610bf081610bca565b92915050565b60008060408385031215610c0d57610c0c610b58565b5b6000610c1b85828601610bab565b9250506020610c2c85828601610be1565b9150509250929050565b60008060408385031215610c4d57610c4c610b58565b5b6000610c5b85828601610bab565b9250506020610c6c85828601610bab565b9150509250929050565b60008115159050919050565b610c8b81610c76565b82525050565b6000602082019050610ca66000830184610c82565b92915050565b610cb581610c76565b8114610cc057600080fd5b50565b600081359050610cd281610cac565b92915050565b60008060408385031215610cef57610cee610b58565b5b6000610cfd85828601610bab565b9250506020610d0e85828601610cc3565b9150509250929050565b6000610d2382610b62565b9050919050565b610d3381610d18565b82525050565b6000602082019050610d4e6000830184610d2a565b92915050565b610d5d81610bc0565b82525050565b6000602082019050610d786000830184610d54565b92915050565b600060208284031215610d9457610d93610b58565b5b6000610da284828501610bab565b91505092915050565b610db481610d18565b8114610dbf57600080fd5b50565b600081359050610dd181610dab565b92915050565b600060208284031215610ded57610dec610b58565b5b6000610dfb84828501610dc2565b91505092915050565b600080fd5b600080fd5b6000601f19601f8301169050919050565b7f4e487b7100000000000000000000000000000000000000000000000000000000600052604160045260246000fd5b610e5782610e0e565b810181811067ffffffffffffffff82111715610e7657610e75610e1f565b5b80604052505050565b6000610e89610b4e565b9050610e958282610e4e565b919050565b600067ffffffffffffffff821115610eb557610eb4610e1f565b5b610ebe82610e0e565b9050602081019050919050565b82818337600083830152505050565b6000610eed610ee884610e9a565b610e7f565b905082815260208101848484011115610f0957610f08610e09565b5b610f14848285610ecb565b509392505050565b600082601f830112610f3157610f30610e04565b5b8135610f41848260208601610eda565b91505092915050565b600080600060608486031215610f6357610f62610b58565b5b6000610f7186828701610bab565b9350506020610f8286828701610be1565b925050604084013567ffffffffffffffff811115610fa357610fa2610b5d565b5b610faf86828701610f1c565b9150509250925092565b600081519050919050565b600082825260208201905092915050565b60005b83811015610ff3578082015181840152602081019050610fd8565b60008484015250505050565b600061100a82610fb9565b6110148185610fc4565b9350611024818560208601610fd5565b61102d81610e0e565b840191505092915050565b600060208201905081810360008301526110528184610fff565b905092915050565b600082825260208201905092915050565b7f4f6e6c79204f776e65722063616e2073657420616c6c6f77616e63657321212060008201527f41626f7274696e672e2e2e000000000000000000000000000000000000000000602082015250565b60006110c7602b8361105a565b91506110d28261106b565b604082019050919050565b600060208201905081810360008301526110f6816110ba565b9050919050565b7f4f6e6c7920477561726469616e732063616e2073756767657374206e6578742060008201527f4f776e657221212041626f7274696e672e2e2e00000000000000000000000000602082015250565b600061115960338361105a565b9150611164826110fd565b604082019050919050565b600060208201905081810360008301526111888161114c565b9050919050565b7f4561636820477561726469616e2063616e206f6e6c7920766f7465206f6e636560008201527f2121000000000000000000000000000000000000000000000000000000000000602082015250565b60006111eb60228361105a565b91506111f68261118f565b604082019050919050565b6000602082019050818103600083015261121a816111de565b9050919050565b7f4e487b7100000000000000000000000000000000000000000000000000000000600052601160045260246000fd5b600061125b82610bc0565b91507fffffffffffffffffffffffffffffffffffffffffffffffffffffffffffffffff820361128d5761128c611221565b5b600182019050919050565b7f4e6f7420616c6c6f77656420746f207472616e7361637420746f20746861742060008201527f6164647265737321212041626f7274696e672e2e2e0000000000000000000000602082015250565b60006112f460358361105a565b91506112ff82611298565b604082019050919050565b60006020820190508181036000830152611323816112e7565b9050919050565b7f416d6f756e7420657863656564732074686520616c6c6f77616e63652121204160008201527f626f7274696e672e2e2e00000000000000000000000000000000000000000000602082015250565b6000611386602a8361105a565b91506113918261132a565b604082019050919050565b600060208201905081810360008301526113b581611379565b9050919050565b60006113c782610bc0565b91506113d283610bc0565b92508282039050818111156113ea576113e9611221565b5b92915050565b600081905092915050565b600061140682610fb9565b61141081856113f0565b9350611420818560208601610fd5565b80840191505092915050565b600061143882846113fb565b915081905092915050565b7f5472616e7366657220756e7375636365737366756c6c212041626f7274696e6760008201527f2e2e2e0000000000000000000000000000000000000000000000000000000000602082015250565b600061149f60238361105a565b91506114aa82611443565b604082019050919050565b600060208201905081810360008301526114ce81611492565b905091905056fea2646970667358221220547fe8a524ffc2325b78dc8608e3e97caf73d8ba7628b010f987d441b019c93a64736f6c63430008100033",
					"opcodes": "PUSH1 0x80 PUSH1 0x40 MSTORE CALLVALUE DUP1 ISZERO PUSH2 0x10 JUMPI PUSH1 0x0 DUP1 REVERT JUMPDEST POP CALLER PUSH1 0x0 DUP1 PUSH2 0x100 EXP DUP2 SLOAD DUP2 PUSH20 0xFFFFFFFFFFFFFFFFFFFFFFFFFFFFFFFFFFFFFFFF MUL NOT AND SWAP1 DUP4 PUSH20 0xFFFFFFFFFFFFFFFFFFFFFFFFFFFFFFFFFFFFFFFF AND MUL OR SWAP1 SSTORE POP PUSH2 0x150B DUP1 PUSH2 0x60 PUSH1 0x0 CODECOPY PUSH1 0x0 RETURN INVALID PUSH1 0x80 PUSH1 0x40 MSTORE PUSH1 0x4 CALLDATASIZE LT PUSH2 0xAB JUMPI PUSH1 0x0 CALLDATALOAD PUSH1 0xE0 SHR DUP1 PUSH4 0x81E5A9F0 GT PUSH2 0x64 JUMPI DUP1 PUSH4 0x81E5A9F0 EQ PUSH2 0x1D9 JUMPI DUP1 PUSH4 0x8DA5CB5B EQ PUSH2 0x204 JUMPI DUP1 PUSH4 0x8F8149BD EQ PUSH2 0x22F JUMPI DUP1 PUSH4 0x99DCA43D EQ PUSH2 0x26C JUMPI DUP1 PUSH4 0xBABCC539 EQ PUSH2 0x295 JUMPI DUP1 PUSH4 0xBE45FD62 EQ PUSH2 0x2D2 JUMPI PUSH2 0xB2 JUMP JUMPDEST DUP1 PUSH4 0x139C7B5D EQ PUSH2 0xB7 JUMPI DUP1 PUSH4 0x1B621171 EQ PUSH2 0xE0 JUMPI DUP1 PUSH4 0x2B8A1C5A EQ PUSH2 0x11D JUMPI DUP1 PUSH4 0x69F3331D EQ PUSH2 0x146 JUMPI DUP1 PUSH4 0x6F30CC1F EQ PUSH2 0x171 JUMPI DUP1 PUSH4 0x711DCA2D EQ PUSH2 0x19C JUMPI PUSH2 0xB2 JUMP JUMPDEST CALLDATASIZE PUSH2 0xB2 JUMPI STOP JUMPDEST PUSH1 0x0 DUP1 REVERT JUMPDEST CALLVALUE DUP1 ISZERO PUSH2 0xC3 JUMPI PUSH1 0x0 DUP1 REVERT JUMPDEST POP PUSH2 0xDE PUSH1 0x4 DUP1 CALLDATASIZE SUB DUP2 ADD SWAP1 PUSH2 0xD9 SWAP2 SWAP1 PUSH2 0xBF6 JUMP JUMPDEST PUSH2 0x30F JUMP JUMPDEST STOP JUMPDEST CALLVALUE DUP1 ISZERO PUSH2 0xEC JUMPI PUSH1 0x0 DUP1 REVERT JUMPDEST POP PUSH2 0x107 PUSH1 0x4 DUP1 CALLDATASIZE SUB DUP2 ADD SWAP1 PUSH2 0x102 SWAP2 SWAP1 PUSH2 0xC36 JUMP JUMPDEST PUSH2 0x447 JUMP JUMPDEST PUSH1 0x40 MLOAD PUSH2 0x114 SWAP2 SWAP1 PUSH2 0xC91 JUMP JUMPDEST PUSH1 0x40 MLOAD DUP1 SWAP2 SUB SWAP1 RETURN JUMPDEST CALLVALUE DUP1 ISZERO PUSH2 0x129 JUMPI PUSH1 0x0 DUP1 REVERT JUMPDEST POP PUSH2 0x144 PUSH1 0x4 DUP1 CALLDATASIZE SUB DUP2 ADD SWAP1 PUSH2 0x13F SWAP2 SWAP1 PUSH2 0xCD8 JUMP JUMPDEST PUSH2 0x476 JUMP JUMPDEST STOP JUMPDEST CALLVALUE DUP1 ISZERO PUSH2 0x152 JUMPI PUSH1 0x0 DUP1 REVERT JUMPDEST POP PUSH2 0x15B PUSH2 0x4D1 JUMP JUMPDEST PUSH1 0x40 MLOAD PUSH2 0x168 SWAP2 SWAP1 PUSH2 0xD39 JUMP JUMPDEST PUSH1 0x40 MLOAD DUP1 SWAP2 SUB SWAP1 RETURN JUMPDEST CALLVALUE DUP1 ISZERO PUSH2 0x17D JUMPI PUSH1 0x0 DUP1 REVERT JUMPDEST POP PUSH2 0x186 PUSH2 0x4F7 JUMP JUMPDEST PUSH1 0x40 MLOAD PUSH2 0x193 SWAP2 SWAP1 PUSH2 0xD63 JUMP JUMPDEST PUSH1 0x40 MLOAD DUP1 SWAP2 SUB SWAP1 RETURN JUMPDEST CALLVALUE DUP1 ISZERO PUSH2 0x1A8 JUMPI PUSH1 0x0 DUP1 REVERT JUMPDEST POP PUSH2 0x1C3 PUSH1 0x4 DUP1 CALLDATASIZE SUB DUP2 ADD SWAP1 PUSH2 0x1BE SWAP2 SWAP1 PUSH2 0xD7E JUMP JUMPDEST PUSH2 0x4FC JUMP JUMPDEST PUSH1 0x40 MLOAD PUSH2 0x1D0 SWAP2 SWAP1 PUSH2 0xC91 JUMP JUMPDEST PUSH1 0x40 MLOAD DUP1 SWAP2 SUB SWAP1 RETURN JUMPDEST CALLVALUE DUP1 ISZERO PUSH2 0x1E5 JUMPI PUSH1 0x0 DUP1 REVERT JUMPDEST POP PUSH2 0x1EE PUSH2 0x51C JUMP JUMPDEST PUSH1 0x40 MLOAD PUSH2 0x1FB SWAP2 SWAP1 PUSH2 0xD63 JUMP JUMPDEST PUSH1 0x40 MLOAD DUP1 SWAP2 SUB SWAP1 RETURN JUMPDEST CALLVALUE DUP1 ISZERO PUSH2 0x210 JUMPI PUSH1 0x0 DUP1 REVERT JUMPDEST POP PUSH2 0x219 PUSH2 0x522 JUMP JUMPDEST PUSH1 0x40 MLOAD PUSH2 0x226 SWAP2 SWAP1 PUSH2 0xD39 JUMP JUMPDEST PUSH1 0x40 MLOAD DUP1 SWAP2 SUB SWAP1 RETURN JUMPDEST CALLVALUE DUP1 ISZERO PUSH2 0x23B JUMPI PUSH1 0x0 DUP1 REVERT JUMPDEST POP PUSH2 0x256 PUSH1 0x4 DUP1 CALLDATASIZE SUB DUP2 ADD SWAP1 PUSH2 0x251 SWAP2 SWAP1 PUSH2 0xD7E JUMP JUMPDEST PUSH2 0x546 JUMP JUMPDEST PUSH1 0x40 MLOAD PUSH2 0x263 SWAP2 SWAP1 PUSH2 0xD63 JUMP JUMPDEST PUSH1 0x40 MLOAD DUP1 SWAP2 SUB SWAP1 RETURN JUMPDEST CALLVALUE DUP1 ISZERO PUSH2 0x278 JUMPI PUSH1 0x0 DUP1 REVERT JUMPDEST POP PUSH2 0x293 PUSH1 0x4 DUP1 CALLDATASIZE SUB DUP2 ADD SWAP1 PUSH2 0x28E SWAP2 SWAP1 PUSH2 0xDD7 JUMP JUMPDEST PUSH2 0x55E JUMP JUMPDEST STOP JUMPDEST CALLVALUE DUP1 ISZERO PUSH2 0x2A1 JUMPI PUSH1 0x0 DUP1 REVERT JUMPDEST POP PUSH2 0x2BC PUSH1 0x4 DUP1 CALLDATASIZE SUB DUP2 ADD SWAP1 PUSH2 0x2B7 SWAP2 SWAP1 PUSH2 0xD7E JUMP JUMPDEST PUSH2 0x8B8 JUMP JUMPDEST PUSH1 0x40 MLOAD PUSH2 0x2C9 SWAP2 SWAP1 PUSH2 0xC91 JUMP JUMPDEST PUSH1 0x40 MLOAD DUP1 SWAP2 SUB SWAP1 RETURN JUMPDEST CALLVALUE DUP1 ISZERO PUSH2 0x2DE JUMPI PUSH1 0x0 DUP1 REVERT JUMPDEST POP PUSH2 0x2F9 PUSH1 0x4 DUP1 CALLDATASIZE SUB DUP2 ADD SWAP1 PUSH2 0x2F4 SWAP2 SWAP1 PUSH2 0xF4A JUMP JUMPDEST PUSH2 0x8D8 JUMP JUMPDEST PUSH1 0x40 MLOAD PUSH2 0x306 SWAP2 SWAP1 PUSH2 0x1038 JUMP JUMPDEST PUSH1 0x40 MLOAD DUP1 SWAP2 SUB SWAP1 RETURN JUMPDEST PUSH1 0x0 DUP1 SLOAD SWAP1 PUSH2 0x100 EXP SWAP1 DIV PUSH20 0xFFFFFFFFFFFFFFFFFFFFFFFFFFFFFFFFFFFFFFFF AND PUSH20 0xFFFFFFFFFFFFFFFFFFFFFFFFFFFFFFFFFFFFFFFF AND CALLER PUSH20 0xFFFFFFFFFFFFFFFFFFFFFFFFFFFFFFFFFFFFFFFF AND EQ PUSH2 0x39D JUMPI PUSH1 0x40 MLOAD PUSH32 0x8C379A000000000000000000000000000000000000000000000000000000000 DUP2 MSTORE PUSH1 0x4 ADD PUSH2 0x394 SWAP1 PUSH2 0x10DD JUMP JUMPDEST PUSH1 0x40 MLOAD DUP1 SWAP2 SUB SWAP1 REVERT JUMPDEST DUP1 PUSH1 0x1 PUSH1 0x0 DUP5 PUSH20 0xFFFFFFFFFFFFFFFFFFFFFFFFFFFFFFFFFFFFFFFF AND PUSH20 0xFFFFFFFFFFFFFFFFFFFFFFFFFFFFFFFFFFFFFFFF AND DUP2 MSTORE PUSH1 0x20 ADD SWAP1 DUP2 MSTORE PUSH1 0x20 ADD PUSH1 0x0 KECCAK256 DUP2 SWAP1 SSTORE POP PUSH1 0x0 DUP2 GT ISZERO PUSH2 0x443 JUMPI PUSH1 0x1 PUSH1 0x2 PUSH1 0x0 DUP5 PUSH20 0xFFFFFFFFFFFFFFFFFFFFFFFFFFFFFFFFFFFFFFFF AND PUSH20 0xFFFFFFFFFFFFFFFFFFFFFFFFFFFFFFFFFFFFFFFF AND DUP2 MSTORE PUSH1 0x20 ADD SWAP1 DUP2 MSTORE PUSH1 0x20 ADD PUSH1 0x0 KECCAK256 PUSH1 0x0 PUSH2 0x100 EXP DUP2 SLOAD DUP2 PUSH1 0xFF MUL NOT AND SWAP1 DUP4 ISZERO ISZERO MUL OR SWAP1 SSTORE POP JUMPDEST POP POP JUMP JUMPDEST PUSH1 0x6 PUSH1 0x20 MSTORE DUP2 PUSH1 0x0 MSTORE PUSH1 0x40 PUSH1 0x0 KECCAK256 PUSH1 0x20 MSTORE DUP1 PUSH1 0x0 MSTORE PUSH1 0x40 PUSH1 0x0 KECCAK256 PUSH1 0x0 SWAP2 POP SWAP2 POP SWAP1 SLOAD SWAP1 PUSH2 0x100 EXP SWAP1 DIV PUSH1 0xFF AND DUP2 JUMP JUMPDEST DUP1 PUSH1 0x3 PUSH1 0x0 DUP5 PUSH20 0xFFFFFFFFFFFFFFFFFFFFFFFFFFFFFFFFFFFFFFFF AND PUSH20 0xFFFFFFFFFFFFFFFFFFFFFFFFFFFFFFFFFFFFFFFF AND DUP2 MSTORE PUSH1 0x20 ADD SWAP1 DUP2 MSTORE PUSH1 0x20 ADD PUSH1 0x0 KECCAK256 PUSH1 0x0 PUSH2 0x100 EXP DUP2 SLOAD DUP2 PUSH1 0xFF MUL NOT AND SWAP1 DUP4 ISZERO ISZERO MUL OR SWAP1 SSTORE POP POP POP JUMP JUMPDEST PUSH1 0x4 PUSH1 0x0 SWAP1 SLOAD SWAP1 PUSH2 0x100 EXP SWAP1 DIV PUSH20 0xFFFFFFFFFFFFFFFFFFFFFFFFFFFFFFFFFFFFFFFF AND DUP2 JUMP JUMPDEST PUSH1 0x3 DUP2 JUMP JUMPDEST PUSH1 0x3 PUSH1 0x20 MSTORE DUP1 PUSH1 0x0 MSTORE PUSH1 0x40 PUSH1 0x0 KECCAK256 PUSH1 0x0 SWAP2 POP SLOAD SWAP1 PUSH2 0x100 EXP SWAP1 DIV PUSH1 0xFF AND DUP2 JUMP JUMPDEST PUSH1 0x5 SLOAD DUP2 JUMP JUMPDEST PUSH1 0x0 DUP1 SLOAD SWAP1 PUSH2 0x100 EXP SWAP1 DIV PUSH20 0xFFFFFFFFFFFFFFFFFFFFFFFFFFFFFFFFFFFFFFFF AND DUP2 JUMP JUMPDEST PUSH1 0x1 PUSH1 0x20 MSTORE DUP1 PUSH1 0x0 MSTORE PUSH1 0x40 PUSH1 0x0 KECCAK256 PUSH1 0x0 SWAP2 POP SWAP1 POP SLOAD DUP2 JUMP JUMPDEST PUSH1 0x3 PUSH1 0x0 CALLER PUSH20 0xFFFFFFFFFFFFFFFFFFFFFFFFFFFFFFFFFFFFFFFF AND PUSH20 0xFFFFFFFFFFFFFFFFFFFFFFFFFFFFFFFFFFFFFFFF AND DUP2 MSTORE PUSH1 0x20 ADD SWAP1 DUP2 MSTORE PUSH1 0x20 ADD PUSH1 0x0 KECCAK256 PUSH1 0x0 SWAP1 SLOAD SWAP1 PUSH2 0x100 EXP SWAP1 DIV PUSH1 0xFF AND PUSH2 0x5EA JUMPI PUSH1 0x40 MLOAD PUSH32 0x8C379A000000000000000000000000000000000000000000000000000000000 DUP2 MSTORE PUSH1 0x4 ADD PUSH2 0x5E1 SWAP1 PUSH2 0x116F JUMP JUMPDEST PUSH1 0x40 MLOAD DUP1 SWAP2 SUB SWAP1 REVERT JUMPDEST PUSH1 0x0 ISZERO ISZERO PUSH1 0x6 PUSH1 0x0 DUP4 PUSH20 0xFFFFFFFFFFFFFFFFFFFFFFFFFFFFFFFFFFFFFFFF AND PUSH20 0xFFFFFFFFFFFFFFFFFFFFFFFFFFFFFFFFFFFFFFFF AND DUP2 MSTORE PUSH1 0x20 ADD SWAP1 DUP2 MSTORE PUSH1 0x20 ADD PUSH1 0x0 KECCAK256 PUSH1 0x0 CALLER PUSH20 0xFFFFFFFFFFFFFFFFFFFFFFFFFFFFFFFFFFFFFFFF AND PUSH20 0xFFFFFFFFFFFFFFFFFFFFFFFFFFFFFFFFFFFFFFFF AND DUP2 MSTORE PUSH1 0x20 ADD SWAP1 DUP2 MSTORE PUSH1 0x20 ADD PUSH1 0x0 KECCAK256 PUSH1 0x0 SWAP1 SLOAD SWAP1 PUSH2 0x100 EXP SWAP1 DIV PUSH1 0xFF AND ISZERO ISZERO EQ PUSH2 0x6BA JUMPI PUSH1 0x40 MLOAD PUSH32 0x8C379A000000000000000000000000000000000000000000000000000000000 DUP2 MSTORE PUSH1 0x4 ADD PUSH2 0x6B1 SWAP1 PUSH2 0x1201 JUMP JUMPDEST PUSH1 0x40 MLOAD DUP1 SWAP2 SUB SWAP1 REVERT JUMPDEST PUSH1 0x4 PUSH1 0x0 SWAP1 SLOAD SWAP1 PUSH2 0x100 EXP SWAP1 DIV PUSH20 0xFFFFFFFFFFFFFFFFFFFFFFFFFFFFFFFFFFFFFFFF AND PUSH20 0xFFFFFFFFFFFFFFFFFFFFFFFFFFFFFFFFFFFFFFFF AND DUP2 PUSH20 0xFFFFFFFFFFFFFFFFFFFFFFFFFFFFFFFFFFFFFFFF AND EQ PUSH2 0x759 JUMPI PUSH1 0x0 PUSH1 0x5 DUP2 SWAP1 SSTORE POP DUP1 PUSH1 0x4 PUSH1 0x0 PUSH2 0x100 EXP DUP2 SLOAD DUP2 PUSH20 0xFFFFFFFFFFFFFFFFFFFFFFFFFFFFFFFFFFFFFFFF MUL NOT AND SWAP1 DUP4 PUSH20 0xFFFFFFFFFFFFFFFFFFFFFFFFFFFFFFFFFFFFFFFF AND MUL OR SWAP1 SSTORE POP JUMPDEST PUSH1 0x5 PUSH1 0x0 DUP2 SLOAD DUP1 SWAP3 SWAP2 SWAP1 PUSH2 0x76C SWAP1 PUSH2 0x1250 JUMP JUMPDEST SWAP2 SWAP1 POP SSTORE POP PUSH1 0x1 PUSH1 0x6 PUSH1 0x0 DUP4 PUSH20 0xFFFFFFFFFFFFFFFFFFFFFFFFFFFFFFFFFFFFFFFF AND PUSH20 0xFFFFFFFFFFFFFFFFFFFFFFFFFFFFFFFFFFFFFFFF AND DUP2 MSTORE PUSH1 0x20 ADD SWAP1 DUP2 MSTORE PUSH1 0x20 ADD PUSH1 0x0 KECCAK256 PUSH1 0x0 CALLER PUSH20 0xFFFFFFFFFFFFFFFFFFFFFFFFFFFFFFFFFFFFFFFF AND PUSH20 0xFFFFFFFFFFFFFFFFFFFFFFFFFFFFFFFFFFFFFFFF AND DUP2 MSTORE PUSH1 0x20 ADD SWAP1 DUP2 MSTORE PUSH1 0x20 ADD PUSH1 0x0 KECCAK256 PUSH1 0x0 PUSH2 0x100 EXP DUP2 SLOAD DUP2 PUSH1 0xFF MUL NOT AND SWAP1 DUP4 ISZERO ISZERO MUL OR SWAP1 SSTORE POP PUSH1 0x3 PUSH1 0x5 SLOAD LT PUSH2 0x8B5 JUMPI PUSH1 0x4 PUSH1 0x0 SWAP1 SLOAD SWAP1 PUSH2 0x100 EXP SWAP1 DIV PUSH20 0xFFFFFFFFFFFFFFFFFFFFFFFFFFFFFFFFFFFFFFFF AND PUSH1 0x0 DUP1 PUSH2 0x100 EXP DUP2 SLOAD DUP2 PUSH20 0xFFFFFFFFFFFFFFFFFFFFFFFFFFFFFFFFFFFFFFFF MUL NOT AND SWAP1 DUP4 PUSH20 0xFFFFFFFFFFFFFFFFFFFFFFFFFFFFFFFFFFFFFFFF AND MUL OR SWAP1 SSTORE POP PUSH1 0x0 PUSH1 0x4 PUSH1 0x0 PUSH2 0x100 EXP DUP2 SLOAD DUP2 PUSH20 0xFFFFFFFFFFFFFFFFFFFFFFFFFFFFFFFFFFFFFFFF MUL NOT AND SWAP1 DUP4 PUSH20 0xFFFFFFFFFFFFFFFFFFFFFFFFFFFFFFFFFFFFFFFF AND MUL OR SWAP1 SSTORE POP JUMPDEST POP JUMP JUMPDEST PUSH1 0x2 PUSH1 0x20 MSTORE DUP1 PUSH1 0x0 MSTORE PUSH1 0x40 PUSH1 0x0 KECCAK256 PUSH1 0x0 SWAP2 POP SLOAD SWAP1 PUSH2 0x100 EXP SWAP1 DIV PUSH1 0xFF AND DUP2 JUMP JUMPDEST PUSH1 0x60 PUSH1 0x0 DUP1 SLOAD SWAP1 PUSH2 0x100 EXP SWAP1 DIV PUSH20 0xFFFFFFFFFFFFFFFFFFFFFFFFFFFFFFFFFFFFFFFF AND PUSH20 0xFFFFFFFFFFFFFFFFFFFFFFFFFFFFFFFFFFFFFFFF AND CALLER PUSH20 0xFFFFFFFFFFFFFFFFFFFFFFFFFFFFFFFFFFFFFFFF AND EQ PUSH2 0xA92 JUMPI PUSH1 0x2 PUSH1 0x0 CALLER PUSH20 0xFFFFFFFFFFFFFFFFFFFFFFFFFFFFFFFFFFFFFFFF AND PUSH20 0xFFFFFFFFFFFFFFFFFFFFFFFFFFFFFFFFFFFFFFFF AND DUP2 MSTORE PUSH1 0x20 ADD SWAP1 DUP2 MSTORE PUSH1 0x20 ADD PUSH1 0x0 KECCAK256 PUSH1 0x0 SWAP1 SLOAD SWAP1 PUSH2 0x100 EXP SWAP1 DIV PUSH1 0xFF AND PUSH2 0x9B9 JUMPI PUSH1 0x40 MLOAD PUSH32 0x8C379A000000000000000000000000000000000000000000000000000000000 DUP2 MSTORE PUSH1 0x4 ADD PUSH2 0x9B0 SWAP1 PUSH2 0x130A JUMP JUMPDEST PUSH1 0x40 MLOAD DUP1 SWAP2 SUB SWAP1 REVERT JUMPDEST PUSH1 0x1 PUSH1 0x0 CALLER PUSH20 0xFFFFFFFFFFFFFFFFFFFFFFFFFFFFFFFFFFFFFFFF AND PUSH20 0xFFFFFFFFFFFFFFFFFFFFFFFFFFFFFFFFFFFFFFFF AND DUP2 MSTORE PUSH1 0x20 ADD SWAP1 DUP2 MSTORE PUSH1 0x20 ADD PUSH1 0x0 KECCAK256 SLOAD DUP4 GT ISZERO PUSH2 0xA3B JUMPI PUSH1 0x40 MLOAD PUSH32 0x8C379A000000000000000000000000000000000000000000000000000000000 DUP2 MSTORE PUSH1 0x4 ADD PUSH2 0xA32 SWAP1 PUSH2 0x139C JUMP JUMPDEST PUSH1 0x40 MLOAD DUP1 SWAP2 SUB SWAP1 REVERT JUMPDEST DUP3 PUSH1 0x1 PUSH1 0x0 CALLER PUSH20 0xFFFFFFFFFFFFFFFFFFFFFFFFFFFFFFFFFFFFFFFF AND PUSH20 0xFFFFFFFFFFFFFFFFFFFFFFFFFFFFFFFFFFFFFFFF AND DUP2 MSTORE PUSH1 0x20 ADD SWAP1 DUP2 MSTORE PUSH1 0x20 ADD PUSH1 0x0 KECCAK256 PUSH1 0x0 DUP3 DUP3 SLOAD PUSH2 0xA8A SWAP2 SWAP1 PUSH2 0x13BC JUMP JUMPDEST SWAP3 POP POP DUP2 SWAP1 SSTORE POP JUMPDEST PUSH1 0x0 DUP1 DUP6 PUSH20 0xFFFFFFFFFFFFFFFFFFFFFFFFFFFFFFFFFFFFFFFF AND DUP6 DUP6 PUSH1 0x40 MLOAD PUSH2 0xABB SWAP2 SWAP1 PUSH2 0x142C JUMP JUMPDEST PUSH1 0x0 PUSH1 0x40 MLOAD DUP1 DUP4 SUB DUP2 DUP6 DUP8 GAS CALL SWAP3 POP POP POP RETURNDATASIZE DUP1 PUSH1 0x0 DUP2 EQ PUSH2 0xAF8 JUMPI PUSH1 0x40 MLOAD SWAP2 POP PUSH1 0x1F NOT PUSH1 0x3F RETURNDATASIZE ADD AND DUP3 ADD PUSH1 0x40 MSTORE RETURNDATASIZE DUP3 MSTORE RETURNDATASIZE PUSH1 0x0 PUSH1 0x20 DUP5 ADD RETURNDATACOPY PUSH2 0xAFD JUMP JUMPDEST PUSH1 0x60 SWAP2 POP JUMPDEST POP SWAP2 POP SWAP2 POP DUP2 PUSH2 0xB42 JUMPI PUSH1 0x40 MLOAD PUSH32 0x8C379A000000000000000000000000000000000000000000000000000000000 DUP2 MSTORE PUSH1 0x4 ADD PUSH2 0xB39 SWAP1 PUSH2 0x14B5 JUMP JUMPDEST PUSH1 0x40 MLOAD DUP1 SWAP2 SUB SWAP1 REVERT JUMPDEST DUP1 SWAP3 POP POP POP SWAP4 SWAP3 POP POP POP JUMP JUMPDEST PUSH1 0x0 PUSH1 0x40 MLOAD SWAP1 POP SWAP1 JUMP JUMPDEST PUSH1 0x0 DUP1 REVERT JUMPDEST PUSH1 0x0 DUP1 REVERT JUMPDEST PUSH1 0x0 PUSH20 0xFFFFFFFFFFFFFFFFFFFFFFFFFFFFFFFFFFFFFFFF DUP3 AND SWAP1 POP SWAP2 SWAP1 POP JUMP JUMPDEST PUSH1 0x0 PUSH2 0xB8D DUP3 PUSH2 0xB62 JUMP JUMPDEST SWAP1 POP SWAP2 SWAP1 POP JUMP JUMPDEST PUSH2 0xB9D DUP2 PUSH2 0xB82 JUMP JUMPDEST DUP2 EQ PUSH2 0xBA8 JUMPI PUSH1 0x0 DUP1 REVERT JUMPDEST POP JUMP JUMPDEST PUSH1 0x0 DUP2 CALLDATALOAD SWAP1 POP PUSH2 0xBBA DUP2 PUSH2 0xB94 JUMP JUMPDEST SWAP3 SWAP2 POP POP JUMP JUMPDEST PUSH1 0x0 DUP2 SWAP1 POP SWAP2 SWAP1 POP JUMP JUMPDEST PUSH2 0xBD3 DUP2 PUSH2 0xBC0 JUMP JUMPDEST DUP2 EQ PUSH2 0xBDE JUMPI PUSH1 0x0 DUP1 REVERT JUMPDEST POP JUMP JUMPDEST PUSH1 0x0 DUP2 CALLDATALOAD SWAP1 POP PUSH2 0xBF0 DUP2 PUSH2 0xBCA JUMP JUMPDEST SWAP3 SWAP2 POP POP JUMP JUMPDEST PUSH1 0x0 DUP1 PUSH1 0x40 DUP4 DUP6 SUB SLT ISZERO PUSH2 0xC0D JUMPI PUSH2 0xC0C PUSH2 0xB58 JUMP JUMPDEST JUMPDEST PUSH1 0x0 PUSH2 0xC1B DUP6 DUP3 DUP7 ADD PUSH2 0xBAB JUMP JUMPDEST SWAP3 POP POP PUSH1 0x20 PUSH2 0xC2C DUP6 DUP3 DUP7 ADD PUSH2 0xBE1 JUMP JUMPDEST SWAP2 POP POP SWAP3 POP SWAP3 SWAP1 POP JUMP JUMPDEST PUSH1 0x0 DUP1 PUSH1 0x40 DUP4 DUP6 SUB SLT ISZERO PUSH2 0xC4D JUMPI PUSH2 0xC4C PUSH2 0xB58 JUMP JUMPDEST JUMPDEST PUSH1 0x0 PUSH2 0xC5B DUP6 DUP3 DUP7 ADD PUSH2 0xBAB JUMP JUMPDEST SWAP3 POP POP PUSH1 0x20 PUSH2 0xC6C DUP6 DUP3 DUP7 ADD PUSH2 0xBAB JUMP JUMPDEST SWAP2 POP POP SWAP3 POP SWAP3 SWAP1 POP JUMP JUMPDEST PUSH1 0x0 DUP2 ISZERO ISZERO SWAP1 POP SWAP2 SWAP1 POP JUMP JUMPDEST PUSH2 0xC8B DUP2 PUSH2 0xC76 JUMP JUMPDEST DUP3 MSTORE POP POP JUMP JUMPDEST PUSH1 0x0 PUSH1 0x20 DUP3 ADD SWAP1 POP PUSH2 0xCA6 PUSH1 0x0 DUP4 ADD DUP5 PUSH2 0xC82 JUMP JUMPDEST SWAP3 SWAP2 POP POP JUMP JUMPDEST PUSH2 0xCB5 DUP2 PUSH2 0xC76 JUMP JUMPDEST DUP2 EQ PUSH2 0xCC0 JUMPI PUSH1 0x0 DUP1 REVERT JUMPDEST POP JUMP JUMPDEST PUSH1 0x0 DUP2 CALLDATALOAD SWAP1 POP PUSH2 0xCD2 DUP2 PUSH2 0xCAC JUMP JUMPDEST SWAP3 SWAP2 POP POP JUMP JUMPDEST PUSH1 0x0 DUP1 PUSH1 0x40 DUP4 DUP6 SUB SLT ISZERO PUSH2 0xCEF JUMPI PUSH2 0xCEE PUSH2 0xB58 JUMP JUMPDEST JUMPDEST PUSH1 0x0 PUSH2 0xCFD DUP6 DUP3 DUP7 ADD PUSH2 0xBAB JUMP JUMPDEST SWAP3 POP POP PUSH1 0x20 PUSH2 0xD0E DUP6 DUP3 DUP7 ADD PUSH2 0xCC3 JUMP JUMPDEST SWAP2 POP POP SWAP3 POP SWAP3 SWAP1 POP JUMP JUMPDEST PUSH1 0x0 PUSH2 0xD23 DUP3 PUSH2 0xB62 JUMP JUMPDEST SWAP1 POP SWAP2 SWAP1 POP JUMP JUMPDEST PUSH2 0xD33 DUP2 PUSH2 0xD18 JUMP JUMPDEST DUP3 MSTORE POP POP JUMP JUMPDEST PUSH1 0x0 PUSH1 0x20 DUP3 ADD SWAP1 POP PUSH2 0xD4E PUSH1 0x0 DUP4 ADD DUP5 PUSH2 0xD2A JUMP JUMPDEST SWAP3 SWAP2 POP POP JUMP JUMPDEST PUSH2 0xD5D DUP2 PUSH2 0xBC0 JUMP JUMPDEST DUP3 MSTORE POP POP JUMP JUMPDEST PUSH1 0x0 PUSH1 0x20 DUP3 ADD SWAP1 POP PUSH2 0xD78 PUSH1 0x0 DUP4 ADD DUP5 PUSH2 0xD54 JUMP JUMPDEST SWAP3 SWAP2 POP POP JUMP JUMPDEST PUSH1 0x0 PUSH1 0x20 DUP3 DUP5 SUB SLT ISZERO PUSH2 0xD94 JUMPI PUSH2 0xD93 PUSH2 0xB58 JUMP JUMPDEST JUMPDEST PUSH1 0x0 PUSH2 0xDA2 DUP5 DUP3 DUP6 ADD PUSH2 0xBAB JUMP JUMPDEST SWAP2 POP POP SWAP3 SWAP2 POP POP JUMP JUMPDEST PUSH2 0xDB4 DUP2 PUSH2 0xD18 JUMP JUMPDEST DUP2 EQ PUSH2 0xDBF JUMPI PUSH1 0x0 DUP1 REVERT JUMPDEST POP JUMP JUMPDEST PUSH1 0x0 DUP2 CALLDATALOAD SWAP1 POP PUSH2 0xDD1 DUP2 PUSH2 0xDAB JUMP JUMPDEST SWAP3 SWAP2 POP POP JUMP JUMPDEST PUSH1 0x0 PUSH1 0x20 DUP3 DUP5 SUB SLT ISZERO PUSH2 0xDED JUMPI PUSH2 0xDEC PUSH2 0xB58 JUMP JUMPDEST JUMPDEST PUSH1 0x0 PUSH2 0xDFB DUP5 DUP3 DUP6 ADD PUSH2 0xDC2 JUMP JUMPDEST SWAP2 POP POP SWAP3 SWAP2 POP POP JUMP JUMPDEST PUSH1 0x0 DUP1 REVERT JUMPDEST PUSH1 0x0 DUP1 REVERT JUMPDEST PUSH1 0x0 PUSH1 0x1F NOT PUSH1 0x1F DUP4 ADD AND SWAP1 POP SWAP2 SWAP1 POP JUMP JUMPDEST PUSH32 0x4E487B7100000000000000000000000000000000000000000000000000000000 PUSH1 0x0 MSTORE PUSH1 0x41 PUSH1 0x4 MSTORE PUSH1 0x24 PUSH1 0x0 REVERT JUMPDEST PUSH2 0xE57 DUP3 PUSH2 0xE0E JUMP JUMPDEST DUP2 ADD DUP2 DUP2 LT PUSH8 0xFFFFFFFFFFFFFFFF DUP3 GT OR ISZERO PUSH2 0xE76 JUMPI PUSH2 0xE75 PUSH2 0xE1F JUMP JUMPDEST JUMPDEST DUP1 PUSH1 0x40 MSTORE POP POP POP JUMP JUMPDEST PUSH1 0x0 PUSH2 0xE89 PUSH2 0xB4E JUMP JUMPDEST SWAP1 POP PUSH2 0xE95 DUP3 DUP3 PUSH2 0xE4E JUMP JUMPDEST SWAP2 SWAP1 POP JUMP JUMPDEST PUSH1 0x0 PUSH8 0xFFFFFFFFFFFFFFFF DUP3 GT ISZERO PUSH2 0xEB5 JUMPI PUSH2 0xEB4 PUSH2 0xE1F JUMP JUMPDEST JUMPDEST PUSH2 0xEBE DUP3 PUSH2 0xE0E JUMP JUMPDEST SWAP1 POP PUSH1 0x20 DUP2 ADD SWAP1 POP SWAP2 SWAP1 POP JUMP JUMPDEST DUP3 DUP2 DUP4 CALLDATACOPY PUSH1 0x0 DUP4 DUP4 ADD MSTORE POP POP POP JUMP JUMPDEST PUSH1 0x0 PUSH2 0xEED PUSH2 0xEE8 DUP5 PUSH2 0xE9A JUMP JUMPDEST PUSH2 0xE7F JUMP JUMPDEST SWAP1 POP DUP3 DUP2 MSTORE PUSH1 0x20 DUP2 ADD DUP5 DUP5 DUP5 ADD GT ISZERO PUSH2 0xF09 JUMPI PUSH2 0xF08 PUSH2 0xE09 JUMP JUMPDEST JUMPDEST PUSH2 0xF14 DUP5 DUP3 DUP6 PUSH2 0xECB JUMP JUMPDEST POP SWAP4 SWAP3 POP POP POP JUMP JUMPDEST PUSH1 0x0 DUP3 PUSH1 0x1F DUP4 ADD SLT PUSH2 0xF31 JUMPI PUSH2 0xF30 PUSH2 0xE04 JUMP JUMPDEST JUMPDEST DUP2 CALLDATALOAD PUSH2 0xF41 DUP5 DUP3 PUSH1 0x20 DUP7 ADD PUSH2 0xEDA JUMP JUMPDEST SWAP2 POP POP SWAP3 SWAP2 POP POP JUMP JUMPDEST PUSH1 0x0 DUP1 PUSH1 0x0 PUSH1 0x60 DUP5 DUP7 SUB SLT ISZERO PUSH2 0xF63 JUMPI PUSH2 0xF62 PUSH2 0xB58 JUMP JUMPDEST JUMPDEST PUSH1 0x0 PUSH2 0xF71 DUP7 DUP3 DUP8 ADD PUSH2 0xBAB JUMP JUMPDEST SWAP4 POP POP PUSH1 0x20 PUSH2 0xF82 DUP7 DUP3 DUP8 ADD PUSH2 0xBE1 JUMP JUMPDEST SWAP3 POP POP PUSH1 0x40 DUP5 ADD CALLDATALOAD PUSH8 0xFFFFFFFFFFFFFFFF DUP2 GT ISZERO PUSH2 0xFA3 JUMPI PUSH2 0xFA2 PUSH2 0xB5D JUMP JUMPDEST JUMPDEST PUSH2 0xFAF DUP7 DUP3 DUP8 ADD PUSH2 0xF1C JUMP JUMPDEST SWAP2 POP POP SWAP3 POP SWAP3 POP SWAP3 JUMP JUMPDEST PUSH1 0x0 DUP2 MLOAD SWAP1 POP SWAP2 SWAP1 POP JUMP JUMPDEST PUSH1 0x0 DUP3 DUP3 MSTORE PUSH1 0x20 DUP3 ADD SWAP1 POP SWAP3 SWAP2 POP POP JUMP JUMPDEST PUSH1 0x0 JUMPDEST DUP4 DUP2 LT ISZERO PUSH2 0xFF3 JUMPI DUP1 DUP3 ADD MLOAD DUP2 DUP5 ADD MSTORE PUSH1 0x20 DUP2 ADD SWAP1 POP PUSH2 0xFD8 JUMP JUMPDEST PUSH1 0x0 DUP5 DUP5 ADD MSTORE POP POP POP POP JUMP JUMPDEST PUSH1 0x0 PUSH2 0x100A DUP3 PUSH2 0xFB9 JUMP JUMPDEST PUSH2 0x1014 DUP2 DUP6 PUSH2 0xFC4 JUMP JUMPDEST SWAP4 POP PUSH2 0x1024 DUP2 DUP6 PUSH1 0x20 DUP7 ADD PUSH2 0xFD5 JUMP JUMPDEST PUSH2 0x102D DUP2 PUSH2 0xE0E JUMP JUMPDEST DUP5 ADD SWAP2 POP POP SWAP3 SWAP2 POP POP JUMP JUMPDEST PUSH1 0x0 PUSH1 0x20 DUP3 ADD SWAP1 POP DUP2 DUP2 SUB PUSH1 0x0 DUP4 ADD MSTORE PUSH2 0x1052 DUP2 DUP5 PUSH2 0xFFF JUMP JUMPDEST SWAP1 POP SWAP3 SWAP2 POP POP JUMP JUMPDEST PUSH1 0x0 DUP3 DUP3 MSTORE PUSH1 0x20 DUP3 ADD SWAP1 POP SWAP3 SWAP2 POP POP JUMP JUMPDEST PUSH32 0x4F6E6C79204F776E65722063616E2073657420616C6C6F77616E636573212120 PUSH1 0x0 DUP3 ADD MSTORE PUSH32 0x41626F7274696E672E2E2E000000000000000000000000000000000000000000 PUSH1 0x20 DUP3 ADD MSTORE POP JUMP JUMPDEST PUSH1 0x0 PUSH2 0x10C7 PUSH1 0x2B DUP4 PUSH2 0x105A JUMP JUMPDEST SWAP2 POP PUSH2 0x10D2 DUP3 PUSH2 0x106B JUMP JUMPDEST PUSH1 0x40 DUP3 ADD SWAP1 POP SWAP2 SWAP1 POP JUMP JUMPDEST PUSH1 0x0 PUSH1 0x20 DUP3 ADD SWAP1 POP DUP2 DUP2 SUB PUSH1 0x0 DUP4 ADD MSTORE PUSH2 0x10F6 DUP2 PUSH2 0x10BA JUMP JUMPDEST SWAP1 POP SWAP2 SWAP1 POP JUMP JUMPDEST PUSH32 0x4F6E6C7920477561726469616E732063616E2073756767657374206E65787420 PUSH1 0x0 DUP3 ADD MSTORE PUSH32 0x4F776E657221212041626F7274696E672E2E2E00000000000000000000000000 PUSH1 0x20 DUP3 ADD MSTORE POP JUMP JUMPDEST PUSH1 0x0 PUSH2 0x1159 PUSH1 0x33 DUP4 PUSH2 0x105A JUMP JUMPDEST SWAP2 POP PUSH2 0x1164 DUP3 PUSH2 0x10FD JUMP JUMPDEST PUSH1 0x40 DUP3 ADD SWAP1 POP SWAP2 SWAP1 POP JUMP JUMPDEST PUSH1 0x0 PUSH1 0x20 DUP3 ADD SWAP1 POP DUP2 DUP2 SUB PUSH1 0x0 DUP4 ADD MSTORE PUSH2 0x1188 DUP2 PUSH2 0x114C JUMP JUMPDEST SWAP1 POP SWAP2 SWAP1 POP JUMP JUMPDEST PUSH32 0x4561636820477561726469616E2063616E206F6E6C7920766F7465206F6E6365 PUSH1 0x0 DUP3 ADD MSTORE PUSH32 0x2121000000000000000000000000000000000000000000000000000000000000 PUSH1 0x20 DUP3 ADD MSTORE POP JUMP JUMPDEST PUSH1 0x0 PUSH2 0x11EB PUSH1 0x22 DUP4 PUSH2 0x105A JUMP JUMPDEST SWAP2 POP PUSH2 0x11F6 DUP3 PUSH2 0x118F JUMP JUMPDEST PUSH1 0x40 DUP3 ADD SWAP1 POP SWAP2 SWAP1 POP JUMP JUMPDEST PUSH1 0x0 PUSH1 0x20 DUP3 ADD SWAP1 POP DUP2 DUP2 SUB PUSH1 0x0 DUP4 ADD MSTORE PUSH2 0x121A DUP2 PUSH2 0x11DE JUMP JUMPDEST SWAP1 POP SWAP2 SWAP1 POP JUMP JUMPDEST PUSH32 0x4E487B7100000000000000000000000000000000000000000000000000000000 PUSH1 0x0 MSTORE PUSH1 0x11 PUSH1 0x4 MSTORE PUSH1 0x24 PUSH1 0x0 REVERT JUMPDEST PUSH1 0x0 PUSH2 0x125B DUP3 PUSH2 0xBC0 JUMP JUMPDEST SWAP2 POP PUSH32 0xFFFFFFFFFFFFFFFFFFFFFFFFFFFFFFFFFFFFFFFFFFFFFFFFFFFFFFFFFFFFFFFF DUP3 SUB PUSH2 0x128D JUMPI PUSH2 0x128C PUSH2 0x1221 JUMP JUMPDEST JUMPDEST PUSH1 0x1 DUP3 ADD SWAP1 POP SWAP2 SWAP1 POP JUMP JUMPDEST PUSH32 0x4E6F7420616C6C6F77656420746F207472616E7361637420746F207468617420 PUSH1 0x0 DUP3 ADD MSTORE PUSH32 0x6164647265737321212041626F7274696E672E2E2E0000000000000000000000 PUSH1 0x20 DUP3 ADD MSTORE POP JUMP JUMPDEST PUSH1 0x0 PUSH2 0x12F4 PUSH1 0x35 DUP4 PUSH2 0x105A JUMP JUMPDEST SWAP2 POP PUSH2 0x12FF DUP3 PUSH2 0x1298 JUMP JUMPDEST PUSH1 0x40 DUP3 ADD SWAP1 POP SWAP2 SWAP1 POP JUMP JUMPDEST PUSH1 0x0 PUSH1 0x20 DUP3 ADD SWAP1 POP DUP2 DUP2 SUB PUSH1 0x0 DUP4 ADD MSTORE PUSH2 0x1323 DUP2 PUSH2 0x12E7 JUMP JUMPDEST SWAP1 POP SWAP2 SWAP1 POP JUMP JUMPDEST PUSH32 0x416D6F756E7420657863656564732074686520616C6C6F77616E636521212041 PUSH1 0x0 DUP3 ADD MSTORE PUSH32 0x626F7274696E672E2E2E00000000000000000000000000000000000000000000 PUSH1 0x20 DUP3 ADD MSTORE POP JUMP JUMPDEST PUSH1 0x0 PUSH2 0x1386 PUSH1 0x2A DUP4 PUSH2 0x105A JUMP JUMPDEST SWAP2 POP PUSH2 0x1391 DUP3 PUSH2 0x132A JUMP JUMPDEST PUSH1 0x40 DUP3 ADD SWAP1 POP SWAP2 SWAP1 POP JUMP JUMPDEST PUSH1 0x0 PUSH1 0x20 DUP3 ADD SWAP1 POP DUP2 DUP2 SUB PUSH1 0x0 DUP4 ADD MSTORE PUSH2 0x13B5 DUP2 PUSH2 0x1379 JUMP JUMPDEST SWAP1 POP SWAP2 SWAP1 POP JUMP JUMPDEST PUSH1 0x0 PUSH2 0x13C7 DUP3 PUSH2 0xBC0 JUMP JUMPDEST SWAP2 POP PUSH2 0x13D2 DUP4 PUSH2 0xBC0 JUMP JUMPDEST SWAP3 POP DUP3 DUP3 SUB SWAP1 POP DUP2 DUP2 GT ISZERO PUSH2 0x13EA JUMPI PUSH2 0x13E9 PUSH2 0x1221 JUMP JUMPDEST JUMPDEST SWAP3 SWAP2 POP POP JUMP JUMPDEST PUSH1 0x0 DUP2 SWAP1 POP SWAP3 SWAP2 POP POP JUMP JUMPDEST PUSH1 0x0 PUSH2 0x1406 DUP3 PUSH2 0xFB9 JUMP JUMPDEST PUSH2 0x1410 DUP2 DUP6 PUSH2 0x13F0 JUMP JUMPDEST SWAP4 POP PUSH2 0x1420 DUP2 DUP6 PUSH1 0x20 DUP7 ADD PUSH2 0xFD5 JUMP JUMPDEST DUP1 DUP5 ADD SWAP2 POP POP SWAP3 SWAP2 POP POP JUMP JUMPDEST PUSH1 0x0 PUSH2 0x1438 DUP3 DUP5 PUSH2 0x13FB JUMP JUMPDEST SWAP2 POP DUP2 SWAP1 POP SWAP3 SWAP2 POP POP JUMP JUMPDEST PUSH32 0x5472616E7366657220756E7375636365737366756C6C212041626F7274696E67 PUSH1 0x0 DUP3 ADD MSTORE PUSH32 0x2E2E2E0000000000000000000000000000000000000000000000000000000000 PUSH1 0x20 DUP3 ADD MSTORE POP JUMP JUMPDEST PUSH1 0x0 PUSH2 0x149F PUSH1 0x23 DUP4 PUSH2 0x105A JUMP JUMPDEST SWAP2 POP PUSH2 0x14AA DUP3 PUSH2 0x1443 JUMP JUMPDEST PUSH1 0x40 DUP3 ADD SWAP1 POP SWAP2 SWAP1 POP JUMP JUMPDEST PUSH1 0x0 PUSH1 0x20 DUP3 ADD SWAP1 POP DUP2 DUP2 SUB PUSH1 0x0 DUP4 ADD MSTORE PUSH2 0x14CE DUP2 PUSH2 0x1492 JUMP JUMPDEST SWAP1 POP SWAP2 SWAP1 POP JUMP INVALID LOG2 PUSH5 0x6970667358 0x22 SLT KECCAK256 SLOAD PUSH32 0xE8A524FFC2325B78DC8608E3E97CAF73D8BA7628B010F987D441B019C93A6473 PUSH16 0x6C634300081000330000000000000000 "
				},
				"gasEstimates": {
					"creation": {
						"codeDepositCost": "1077400",
						"executionCost": "25386",
						"totalCost": "1102786"
					},
					"external": {
						"Allowances(address)": "2858",
						"Guardian(address)": "2956",
						"guardiansNotVoted(address,address)": "infinite",
						"isAllowed(address)": "2933",
						"nextOwner()": "2581",
						"owner()": "2533",
						"selectNextOwner(address)": "138161",
						"setAllowances(address,uint256)": "49383",
						"setGuardian(address,bool)": "25036",
						"suggestions()": "2429",
						"suggestionsRequired()": "418",
						"transfer(address,uint256,bytes)": "infinite"
					}
				},
				"methodIdentifiers": {
					"Allowances(address)": "8f8149bd",
					"Guardian(address)": "711dca2d",
					"guardiansNotVoted(address,address)": "1b621171",
					"isAllowed(address)": "babcc539",
					"nextOwner()": "69f3331d",
					"owner()": "8da5cb5b",
					"selectNextOwner(address)": "99dca43d",
					"setAllowances(address,uint256)": "139c7b5d",
					"setGuardian(address,bool)": "2b8a1c5a",
					"suggestions()": "81e5a9f0",
					"suggestionsRequired()": "6f30cc1f",
					"transfer(address,uint256,bytes)": "be45fd62"
				}
			},
			"storageLayout": {
				"storage": [
					{
						"astId": 3,
						"contract": "contracts/Ethereum-Wallet.sol:SmartWalletProject",
						"label": "owner",
						"offset": 0,
						"slot": "0",
						"type": "t_address_payable"
					},
					{
						"astId": 19,
						"contract": "contracts/Ethereum-Wallet.sol:SmartWalletProject",
						"label": "Allowances",
						"offset": 0,
						"slot": "1",
						"type": "t_mapping(t_address,t_uint256)"
					},
					{
						"astId": 23,
						"contract": "contracts/Ethereum-Wallet.sol:SmartWalletProject",
						"label": "isAllowed",
						"offset": 0,
						"slot": "2",
						"type": "t_mapping(t_address,t_bool)"
					},
					{
						"astId": 27,
						"contract": "contracts/Ethereum-Wallet.sol:SmartWalletProject",
						"label": "Guardian",
						"offset": 0,
						"slot": "3",
						"type": "t_mapping(t_address,t_bool)"
					},
					{
						"astId": 29,
						"contract": "contracts/Ethereum-Wallet.sol:SmartWalletProject",
						"label": "nextOwner",
						"offset": 0,
						"slot": "4",
						"type": "t_address_payable"
					},
					{
						"astId": 34,
						"contract": "contracts/Ethereum-Wallet.sol:SmartWalletProject",
						"label": "suggestions",
						"offset": 0,
						"slot": "5",
						"type": "t_uint256"
					},
					{
						"astId": 40,
						"contract": "contracts/Ethereum-Wallet.sol:SmartWalletProject",
						"label": "guardiansNotVoted",
						"offset": 0,
						"slot": "6",
						"type": "t_mapping(t_address,t_mapping(t_address,t_bool))"
					}
				],
				"types": {
					"t_address": {
						"encoding": "inplace",
						"label": "address",
						"numberOfBytes": "20"
					},
					"t_address_payable": {
						"encoding": "inplace",
						"label": "address payable",
						"numberOfBytes": "20"
					},
					"t_bool": {
						"encoding": "inplace",
						"label": "bool",
						"numberOfBytes": "1"
					},
					"t_mapping(t_address,t_bool)": {
						"encoding": "mapping",
						"key": "t_address",
						"label": "mapping(address => bool)",
						"numberOfBytes": "32",
						"value": "t_bool"
					},
					"t_mapping(t_address,t_mapping(t_address,t_bool))": {
						"encoding": "mapping",
						"key": "t_address",
						"label": "mapping(address => mapping(address => bool))",
						"numberOfBytes": "32",
						"value": "t_mapping(t_address,t_bool)"
					},
					"t_mapping(t_address,t_uint256)": {
						"encoding": "mapping",
						"key": "t_address",
						"label": "mapping(address => uint256)",
						"numberOfBytes": "32",
						"value": "t_uint256"
					},
					"t_uint256": {
						"encoding": "inplace",
						"label": "uint256",
						"numberOfBytes": "32"
					}
				}
			},
			"userdoc": {
				"kind": "user",
				"methods": {},
				"version": 1
			}
		}
	}
}